{
  "contractName": "CarbonCredits",
  "abi": [
    {
      "inputs": [
        {
          "internalType": "contract IERC20",
          "name": "_carbonCoin",
          "type": "address"
        },
        {
          "internalType": "address",
          "name": "_admin",
          "type": "address"
        },
        {
          "internalType": "address",
          "name": "_auditor",
          "type": "address"
        },
        {
          "internalType": "address",
          "name": "_thirdParty",
          "type": "address"
        }
      ],
      "stateMutability": "nonpayable",
      "type": "constructor"
    },
    {
      "anonymous": false,
      "inputs": [
        {
          "indexed": false,
          "internalType": "address",
          "name": "_target",
          "type": "address"
        },
        {
          "indexed": false,
          "internalType": "uint256",
          "name": "_amount",
          "type": "uint256"
        }
      ],
      "name": "CarbonAllowanceReset",
      "type": "event"
    },
    {
      "anonymous": false,
      "inputs": [
        {
          "indexed": false,
          "internalType": "address",
          "name": "account",
          "type": "address"
        },
        {
          "components": [
            {
              "internalType": "string",
              "name": "reportText",
              "type": "string"
            }
          ],
          "indexed": false,
          "internalType": "struct CarbonCredits.CarbonReport",
          "name": "carbonReport",
          "type": "tuple"
        }
      ],
      "name": "CarbonReportSubmitted",
      "type": "event"
    },
    {
      "anonymous": false,
      "inputs": [
        {
          "indexed": false,
          "internalType": "address",
          "name": "_from",
          "type": "address"
        },
        {
          "indexed": false,
          "internalType": "address",
          "name": "_to",
          "type": "address"
        },
        {
          "indexed": false,
          "internalType": "uint256",
          "name": "_amount",
          "type": "uint256"
        },
        {
          "indexed": false,
          "internalType": "uint256",
          "name": "_price",
          "type": "uint256"
        }
      ],
      "name": "CarbonTransaction",
      "type": "event"
    },
    {
      "anonymous": false,
      "inputs": [
        {
          "indexed": false,
          "internalType": "address",
          "name": "_account",
          "type": "address"
        },
        {
          "indexed": false,
          "internalType": "uint256",
          "name": "_amount",
          "type": "uint256"
        }
      ],
      "name": "ExceedRecord",
      "type": "event"
    },
    {
      "inputs": [
        {
          "internalType": "address",
          "name": "",
          "type": "address"
        }
      ],
      "name": "carbonAllowance",
      "outputs": [
        {
          "internalType": "uint256",
          "name": "",
          "type": "uint256"
        }
      ],
      "stateMutability": "view",
      "type": "function",
      "constant": true
    },
    {
      "inputs": [],
      "name": "carbonCoin",
      "outputs": [
        {
          "internalType": "contract IERC20",
          "name": "",
          "type": "address"
        }
      ],
      "stateMutability": "view",
      "type": "function",
      "constant": true
    },
    {
      "inputs": [
        {
          "internalType": "address",
          "name": "",
          "type": "address"
        }
      ],
      "name": "carbonReports",
      "outputs": [
        {
          "internalType": "string",
          "name": "reportText",
          "type": "string"
        }
      ],
      "stateMutability": "view",
      "type": "function",
      "constant": true
    },
    {
      "inputs": [
        {
          "internalType": "address",
          "name": "_target",
          "type": "address"
        },
        {
          "internalType": "uint256",
          "name": "_amount",
          "type": "uint256"
        }
      ],
      "name": "resetAllowance",
      "outputs": [],
      "stateMutability": "nonpayable",
      "type": "function"
    },
    {
      "inputs": [
        {
          "internalType": "address",
          "name": "_to",
          "type": "address"
        },
        {
          "internalType": "uint256",
          "name": "_amount",
          "type": "uint256"
        },
        {
          "internalType": "uint256",
          "name": "_price",
          "type": "uint256"
        }
      ],
      "name": "carbonTransaction",
      "outputs": [],
      "stateMutability": "nonpayable",
      "type": "function"
    },
    {
      "inputs": [
        {
          "internalType": "address",
          "name": "_target",
          "type": "address"
        },
        {
          "internalType": "uint256",
          "name": "_amount",
          "type": "uint256"
        },
        {
          "internalType": "string",
          "name": "_report",
          "type": "string"
        }
      ],
      "name": "submitCarbonReport",
      "outputs": [],
      "stateMutability": "nonpayable",
      "type": "function"
    },
    {
      "inputs": [
        {
          "internalType": "address",
          "name": "account",
          "type": "address"
        }
      ],
      "name": "allowanceOf",
      "outputs": [
        {
          "internalType": "uint256",
          "name": "",
          "type": "uint256"
        }
      ],
      "stateMutability": "view",
      "type": "function",
      "constant": true
    },
    {
      "inputs": [
        {
          "internalType": "address",
          "name": "account",
          "type": "address"
        }
      ],
      "name": "reportOf",
      "outputs": [
        {
          "internalType": "string",
          "name": "",
          "type": "string"
        }
      ],
      "stateMutability": "view",
      "type": "function",
      "constant": true
    }
  ],
  "bytecode": "0x60806040523480156200001157600080fd5b50604051620017d8380380620017d88339818101604052810190620000379190620001f3565b836000806101000a81548173ffffffffffffffffffffffffffffffffffffffff021916908373ffffffffffffffffffffffffffffffffffffffff16021790555082600160006101000a81548173ffffffffffffffffffffffffffffffffffffffff021916908373ffffffffffffffffffffffffffffffffffffffff16021790555081600260006101000a81548173ffffffffffffffffffffffffffffffffffffffff021916908373ffffffffffffffffffffffffffffffffffffffff16021790555080600360006101000a81548173ffffffffffffffffffffffffffffffffffffffff021916908373ffffffffffffffffffffffffffffffffffffffff1602179055505050505062000265565b600080fd5b600073ffffffffffffffffffffffffffffffffffffffff82169050919050565b6000620001768262000149565b9050919050565b60006200018a8262000169565b9050919050565b6200019c816200017d565b8114620001a857600080fd5b50565b600081519050620001bc8162000191565b92915050565b620001cd8162000169565b8114620001d957600080fd5b50565b600081519050620001ed81620001c2565b92915050565b6000806000806080858703121562000210576200020f62000144565b5b60006200022087828801620001ab565b94505060206200023387828801620001dc565b93505060406200024687828801620001dc565b92505060606200025987828801620001dc565b91505092959194509250565b61156380620002756000396000f3fe608060405234801561001057600080fd5b50600436106100a5576000357c010000000000000000000000000000000000000000000000000000000090048063ad2e126911610078578063ad2e126914610142578063bfd2385e14610160578063c3c7716a14610190578063c61eb719146101c0576100a5565b8063116776c4146100aa57806340899d65146100da578063764a56df146100f657806389080b9214610126575b600080fd5b6100c460048036038101906100bf9190610ada565b6101dc565b6040516100d19190610b97565b60405180910390f35b6100f460048036038101906100ef9190610bef565b6102b0565b005b610110600480360381019061010b9190610ada565b61038b565b60405161011d9190610b97565b60405180910390f35b610140600480360381019061013b9190610c2f565b610431565b005b61014a6107c6565b6040516101579190610ce1565b60405180910390f35b61017a60048036038101906101759190610ada565b6107ea565b6040516101879190610d0b565b60405180910390f35b6101aa60048036038101906101a59190610ada565b610833565b6040516101b79190610d0b565b60405180910390f35b6101da60048036038101906101d59190610e5b565b61084b565b005b6060600560008373ffffffffffffffffffffffffffffffffffffffff1673ffffffffffffffffffffffffffffffffffffffff168152602001908152602001600020600001805461022b90610ef9565b80601f016020809104026020016040519081016040528092919081815260200182805461025790610ef9565b80156102a45780601f10610279576101008083540402835291602001916102a4565b820191906000526020600020905b81548152906001019060200180831161028757829003601f168201915b50505050509050919050565b600160009054906101000a900473ffffffffffffffffffffffffffffffffffffffff1673ffffffffffffffffffffffffffffffffffffffff163373ffffffffffffffffffffffffffffffffffffffff161461030a57600080fd5b80600460008473ffffffffffffffffffffffffffffffffffffffff1673ffffffffffffffffffffffffffffffffffffffff168152602001908152602001600020819055507fbdd9e7eebfe4260a8f3937470ae3f7ab08f61ebb3708ea30d00793acc2d09615828260405161037f929190610f39565b60405180910390a15050565b60056020528060005260406000206000915090508060000180546103ae90610ef9565b80601f01602080910402602001604051908101604052809291908181526020018280546103da90610ef9565b80156104275780601f106103fc57610100808354040283529160200191610427565b820191906000526020600020905b81548152906001019060200180831161040a57829003601f168201915b5050505050905081565b81600460008573ffffffffffffffffffffffffffffffffffffffff1673ffffffffffffffffffffffffffffffffffffffff1681526020019081526020016000205410156104b3576040517f08c379a00000000000000000000000000000000000000000000000000000000081526004016104aa90610fae565b60405180910390fd5b8060008054906101000a900473ffffffffffffffffffffffffffffffffffffffff1673ffffffffffffffffffffffffffffffffffffffff166370a08231336040518263ffffffff167c01000000000000000000000000000000000000000000000000000000000281526004016105299190610fce565b602060405180830381865afa158015610546573d6000803e3d6000fd5b505050506040513d601f19601f8201168201806040525081019061056a9190610ffe565b10156105ab576040517f08c379a00000000000000000000000000000000000000000000000000000000081526004016105a290611077565b60405180910390fd5b81600460003373ffffffffffffffffffffffffffffffffffffffff1673ffffffffffffffffffffffffffffffffffffffff168152602001908152602001600020546105f691906110c6565b600460003373ffffffffffffffffffffffffffffffffffffffff1673ffffffffffffffffffffffffffffffffffffffff1681526020019081526020016000208190555081600460008573ffffffffffffffffffffffffffffffffffffffff1673ffffffffffffffffffffffffffffffffffffffff1681526020019081526020016000205461068491906110fa565b600460008573ffffffffffffffffffffffffffffffffffffffff1673ffffffffffffffffffffffffffffffffffffffff1681526020019081526020016000208190555060008054906101000a900473ffffffffffffffffffffffffffffffffffffffff1673ffffffffffffffffffffffffffffffffffffffff166323b872dd3385846040518463ffffffff167c01000000000000000000000000000000000000000000000000000000000281526004016107409392919061112e565b6020604051808303816000875af115801561075f573d6000803e3d6000fd5b505050506040513d601f19601f82011682018060405250810190610783919061119d565b507f243222deee0acbb4e3d21131e70fb64a611eb50402204933f9b72aceadde724d338484846040516107b994939291906111ca565b60405180910390a1505050565b60008054906101000a900473ffffffffffffffffffffffffffffffffffffffff1681565b6000600460008373ffffffffffffffffffffffffffffffffffffffff1673ffffffffffffffffffffffffffffffffffffffff168152602001908152602001600020549050919050565b60046020528060005260406000206000915090505481565b600260009054906101000a900473ffffffffffffffffffffffffffffffffffffffff1673ffffffffffffffffffffffffffffffffffffffff163373ffffffffffffffffffffffffffffffffffffffff16146108a557600080fd5b604051806020016040528082815250600560008573ffffffffffffffffffffffffffffffffffffffff1673ffffffffffffffffffffffffffffffffffffffff168152602001908152602001600020600082015181600001908161090891906113b7565b5090505081600460008573ffffffffffffffffffffffffffffffffffffffff1673ffffffffffffffffffffffffffffffffffffffff1681526020019081526020016000205461095791906110fa565b600460008573ffffffffffffffffffffffffffffffffffffffff1673ffffffffffffffffffffffffffffffffffffffff168152602001908152602001600020819055507ffb484233b8b1462403137f3ee1d35494663faaefa9b80f36ba86b0a77c27ec4e836040518060200160405280848152506040516109d99291906114fd565b60405180910390a16000600460008573ffffffffffffffffffffffffffffffffffffffff1673ffffffffffffffffffffffffffffffffffffffff168152602001908152602001600020541015610a63577f8c85e549791863374897cbfea2d95bc46d16a31ce1fb6beeeea562c8a2b69a9e8383604051610a5a929190610f39565b60405180910390a15b505050565b6000604051905090565b600080fd5b600080fd5b600073ffffffffffffffffffffffffffffffffffffffff82169050919050565b6000610aa782610a7c565b9050919050565b610ab781610a9c565b8114610ac257600080fd5b50565b600081359050610ad481610aae565b92915050565b600060208284031215610af057610aef610a72565b5b6000610afe84828501610ac5565b91505092915050565b600081519050919050565b600082825260208201905092915050565b60005b83811015610b41578082015181840152602081019050610b26565b60008484015250505050565b6000601f19601f8301169050919050565b6000610b6982610b07565b610b738185610b12565b9350610b83818560208601610b23565b610b8c81610b4d565b840191505092915050565b60006020820190508181036000830152610bb18184610b5e565b905092915050565b6000819050919050565b610bcc81610bb9565b8114610bd757600080fd5b50565b600081359050610be981610bc3565b92915050565b60008060408385031215610c0657610c05610a72565b5b6000610c1485828601610ac5565b9250506020610c2585828601610bda565b9150509250929050565b600080600060608486031215610c4857610c47610a72565b5b6000610c5686828701610ac5565b9350506020610c6786828701610bda565b9250506040610c7886828701610bda565b9150509250925092565b6000819050919050565b6000610ca7610ca2610c9d84610a7c565b610c82565b610a7c565b9050919050565b6000610cb982610c8c565b9050919050565b6000610ccb82610cae565b9050919050565b610cdb81610cc0565b82525050565b6000602082019050610cf66000830184610cd2565b92915050565b610d0581610bb9565b82525050565b6000602082019050610d206000830184610cfc565b92915050565b600080fd5b600080fd5b7f4e487b7100000000000000000000000000000000000000000000000000000000600052604160045260246000fd5b610d6882610b4d565b810181811067ffffffffffffffff82111715610d8757610d86610d30565b5b80604052505050565b6000610d9a610a68565b9050610da68282610d5f565b919050565b600067ffffffffffffffff821115610dc657610dc5610d30565b5b610dcf82610b4d565b9050602081019050919050565b82818337600083830152505050565b6000610dfe610df984610dab565b610d90565b905082815260208101848484011115610e1a57610e19610d2b565b5b610e25848285610ddc565b509392505050565b600082601f830112610e4257610e41610d26565b5b8135610e52848260208601610deb565b91505092915050565b600080600060608486031215610e7457610e73610a72565b5b6000610e8286828701610ac5565b9350506020610e9386828701610bda565b925050604084013567ffffffffffffffff811115610eb457610eb3610a77565b5b610ec086828701610e2d565b9150509250925092565b7f4e487b7100000000000000000000000000000000000000000000000000000000600052602260045260246000fd5b60006002820490506001821680610f1157607f821691505b602082108103610f2457610f23610eca565b5b50919050565b610f3381610a9c565b82525050565b6000604082019050610f4e6000830185610f2a565b610f5b6020830184610cfc565b9392505050565b7f496e73756666696369656e7420636172626f6e20616c6c6f77616e6365000000600082015250565b6000610f98601d83610b12565b9150610fa382610f62565b602082019050919050565b60006020820190508181036000830152610fc781610f8b565b9050919050565b6000602082019050610fe36000830184610f2a565b92915050565b600081519050610ff881610bc3565b92915050565b60006020828403121561101457611013610a72565b5b600061102284828501610fe9565b91505092915050565b7f496e737566666963656e7420636172626f6e20636f696e000000000000000000600082015250565b6000611061601783610b12565b915061106c8261102b565b602082019050919050565b6000602082019050818103600083015261109081611054565b9050919050565b7f4e487b7100000000000000000000000000000000000000000000000000000000600052601160045260246000fd5b60006110d182610bb9565b91506110dc83610bb9565b92508282019050808211156110f4576110f3611097565b5b92915050565b600061110582610bb9565b915061111083610bb9565b925082820390508181111561112857611127611097565b5b92915050565b60006060820190506111436000830186610f2a565b6111506020830185610f2a565b61115d6040830184610cfc565b949350505050565b60008115159050919050565b61117a81611165565b811461118557600080fd5b50565b60008151905061119781611171565b92915050565b6000602082840312156111b3576111b2610a72565b5b60006111c184828501611188565b91505092915050565b60006080820190506111df6000830187610f2a565b6111ec6020830186610f2a565b6111f96040830185610cfc565b6112066060830184610cfc565b95945050505050565b60008190508160005260206000209050919050565b60006020601f8301049050919050565b60008160020a8302905092915050565b6000600883026112747fffffffffffffffffffffffffffffffffffffffffffffffffffffffffffffffff82611234565b61127e8683611234565b95508019841693508086168417925050509392505050565b60006112b16112ac6112a784610bb9565b610c82565b610bb9565b9050919050565b6000819050919050565b6112cb83611296565b6112df6112d7826112b8565b848454611244565b825550505050565b600090565b6112f46112e7565b6112ff8184846112c2565b505050565b5b81811015611323576113186000826112ec565b600181019050611305565b5050565b601f821115611368576113398161120f565b61134284611224565b81016020851015611351578190505b61136561135d85611224565b830182611304565b50505b505050565b60008160020a8304905092915050565b600061138e6000198460080261136d565b1980831691505092915050565b60006113a7838361137d565b9150826002028217905092915050565b6113c082610b07565b67ffffffffffffffff8111156113d9576113d8610d30565b5b6113e38254610ef9565b6113ee828285611327565b600060209050601f831160018114611421576000841561140f578287015190505b611419858261139b565b865550611481565b601f19841661142f8661120f565b60005b8281101561145757848901518255600182019150602085019450602081019050611432565b868310156114745784890151611470601f89168261137d565b8355505b6001600288020188555050505b505050505050565b600082825260208201905092915050565b60006114a582610b07565b6114af8185611489565b93506114bf818560208601610b23565b6114c881610b4d565b840191505092915050565b600060208301600083015184820360008601526114f0828261149a565b9150508091505092915050565b60006040820190506115126000830185610f2a565b818103602083015261152481846114d3565b9050939250505056fea264697066735822122013485d282416364a2541beb8d47e962b7d2b6f7b096ff897a7e1f8dd8ce7af0c64736f6c63430008150033",
  "immutableReferences": {},
  "source": "// SPDX-License-Identifier: MIT\r\npragma solidity ^0.8.0;\r\n\r\nimport \"@openzeppelin/contracts/token/ERC20/IERC20.sol\";\r\nimport \"@openzeppelin/contracts/token/ERC20/ERC20.sol\";\r\nimport \"@openzeppelin/contracts/utils/Address.sol\";\r\nimport \"@openzeppelin/contracts/token/ERC20/utils/SafeERC20.sol\";\r\n\r\ncontract CarbonCredits {\r\n    using SafeERC20 for IERC20;\r\n    using Address for address;\r\n\r\n    IERC20 public carbonCoin; //  \r\n    address private admin; // \r\n    address private auditor; // \r\n    address private thirdParty; // \r\n    struct CarbonReport {\r\n        string reportText; // \r\n    }\r\n\r\n    mapping(address => uint256) public carbonAllowance; // \r\n    mapping(address => CarbonReport) public carbonReports; // \r\n\r\n    // event CarbonAllowanceIssued(address target, uint256 amount);\r\n    // event CarbonAllowanceBurned(address target, uint256 amount);\r\n    event CarbonAllowanceReset(address _target, uint256 _amount);\r\n    event CarbonTransaction(address _from, address _to, uint256 _amount, uint256 _price);\r\n    event CarbonReportSubmitted(address account,CarbonReport carbonReport);\r\n    event ExceedRecord(address _account, uint256 _amount);\r\n\r\n    constructor(IERC20 _carbonCoin, address _admin, address _auditor, address _thirdParty) {\r\n        carbonCoin = _carbonCoin;\r\n        admin      = _admin;\r\n        auditor    = _auditor;\r\n        thirdParty = _thirdParty;\r\n    }\r\n\r\n    // \r\n    // function issueCarbonAllowance(address target, uint256 amount) public {\r\n    //     require(msg.sender == carbonIssuer, \"Only carbon issuer can issue allowance\");\r\n    //     require(carbonAllowance[target] < carbonAllowance[target] + amount, \"Overflow!\");\r\n    //     carbonAllowance[target] = carbonAllowance[target] + amount;\r\n    //     emit CarbonAllowanceIssued(target,amount);\r\n    // }\r\n\r\n    // \r\n    // function burnCarbonAllowance(address target, uint256 amount) public {\r\n    //     require(msg.sender == carbonIssuer, \"Only carbon issuer can burn allowance\");\r\n    //     carbonAllowance[target] = carbonAllowance[target] - amount;\r\n    //     emit CarbonAllowanceBurned(target, amount);\r\n    // }\r\n\r\n\r\n    // \r\n    function resetAllowance(address _target, uint256 _amount) public {\r\n        require(msg.sender == admin);\r\n        carbonAllowance[_target] = _amount;\r\n        emit CarbonAllowanceReset(_target,_amount);\r\n    }\r\n\r\n\r\n    // msg.sender\r\n    function carbonTransaction(address _to, uint256 _amount, uint256 _price) public {\r\n        require(carbonAllowance[_to] >= _amount, \"Insufficient carbon allowance\"); // \r\n        require(carbonCoin.balanceOf(msg.sender) >= _price, \"Insufficent carbon coin\"); // \r\n        carbonAllowance[msg.sender] = carbonAllowance[msg.sender] + _amount; // \r\n        carbonAllowance[_to] = carbonAllowance[_to] - _amount; // \r\n        carbonCoin.transferFrom( msg.sender,_to, _price); // \r\n        emit CarbonTransaction(msg.sender,_to,_amount,_price);\r\n    }\r\n\r\n    //  -- \r\n    function submitCarbonReport(address _target,uint256 _amount, string memory _report) public{\r\n        require(msg.sender == auditor);\r\n        carbonReports[_target] = CarbonReport(_report);\r\n        carbonAllowance[_target] = carbonAllowance[_target] - _amount; // \r\n        emit CarbonReportSubmitted(_target, CarbonReport(_report));\r\n        \r\n        if(carbonAllowance[_target] < 0){\r\n            emit ExceedRecord(_target,_amount); // \r\n        }\r\n    }\r\n\r\n    // \r\n    function allowanceOf(address account) public view returns (uint256){\r\n        return carbonAllowance[account];\r\n    }\r\n\r\n    // \r\n    function reportOf(address account) public view returns (string memory){\r\n        return carbonReports[account].reportText;\r\n    }\r\n\r\n}\r\n",
  "sourcePath": "G:\\CNTS\\carbon-neutral-trading-system\\truffle\\contracts\\CarbonCredits.sol",
  "compiler": {
    "name": "solc",
    "version": "0.8.21+commit.d9974bed.Emscripten.clang"
  },
  "schemaVersion": "3.4.16",
  "updatedAt": "2024-04-05T06:43:52.561Z",
  "networkType": "ethereum",
  "devdoc": {
    "kind": "dev",
    "methods": {},
    "version": 1
  },
  "userdoc": {
    "kind": "user",
    "methods": {},
    "version": 1
  }
}