{
  "contractName": "CarbonCredits",
  "abi": [
    {
      "inputs": [
        {
          "internalType": "contract IERC20",
          "name": "_carbonCoin",
          "type": "address"
        },
        {
          "internalType": "address",
          "name": "_carbonIssuer",
          "type": "address"
        }
      ],
      "stateMutability": "nonpayable",
      "type": "constructor"
    },
    {
      "inputs": [
        {
          "internalType": "address",
          "name": "target",
          "type": "address"
        }
      ],
      "name": "AddressEmptyCode",
      "type": "error"
    },
    {
      "inputs": [
        {
          "internalType": "address",
          "name": "account",
          "type": "address"
        }
      ],
      "name": "AddressInsufficientBalance",
      "type": "error"
    },
    {
      "inputs": [],
      "name": "FailedInnerCall",
      "type": "error"
    },
    {
      "inputs": [
        {
          "internalType": "address",
          "name": "token",
          "type": "address"
        }
      ],
      "name": "SafeERC20FailedOperation",
      "type": "error"
    },
    {
      "anonymous": false,
      "inputs": [
        {
          "indexed": false,
          "internalType": "address",
          "name": "account",
          "type": "address"
        },
        {
          "indexed": false,
          "internalType": "address",
          "name": "target",
          "type": "address"
        },
        {
          "indexed": false,
          "internalType": "uint256",
          "name": "amount",
          "type": "uint256"
        }
      ],
      "name": "CarbonAllowanceIssued",
      "type": "event"
    },
    {
      "anonymous": false,
      "inputs": [
        {
          "indexed": false,
          "internalType": "address",
          "name": "account",
          "type": "address"
        },
        {
          "components": [
            {
              "internalType": "string",
              "name": "reportText",
              "type": "string"
            }
          ],
          "indexed": false,
          "internalType": "struct CarbonCredits.CarbonReport",
          "name": "carbonReport",
          "type": "tuple"
        }
      ],
      "name": "CarbonReportSubmitted",
      "type": "event"
    },
    {
      "anonymous": false,
      "inputs": [
        {
          "indexed": false,
          "internalType": "address",
          "name": "_from",
          "type": "address"
        },
        {
          "indexed": false,
          "internalType": "address",
          "name": "_to",
          "type": "address"
        },
        {
          "indexed": false,
          "internalType": "uint256",
          "name": "_amount",
          "type": "uint256"
        },
        {
          "indexed": false,
          "internalType": "uint256",
          "name": "_price",
          "type": "uint256"
        }
      ],
      "name": "CarbonTransaction",
      "type": "event"
    },
    {
      "inputs": [
        {
          "internalType": "address",
          "name": "",
          "type": "address"
        }
      ],
      "name": "carbonAllowance",
      "outputs": [
        {
          "internalType": "uint256",
          "name": "",
          "type": "uint256"
        }
      ],
      "stateMutability": "view",
      "type": "function",
      "constant": true
    },
    {
      "inputs": [],
      "name": "carbonCoin",
      "outputs": [
        {
          "internalType": "contract IERC20",
          "name": "",
          "type": "address"
        }
      ],
      "stateMutability": "view",
      "type": "function",
      "constant": true
    },
    {
      "inputs": [],
      "name": "carbonIssuer",
      "outputs": [
        {
          "internalType": "address",
          "name": "",
          "type": "address"
        }
      ],
      "stateMutability": "view",
      "type": "function",
      "constant": true
    },
    {
      "inputs": [
        {
          "internalType": "address",
          "name": "",
          "type": "address"
        }
      ],
      "name": "carbonReports",
      "outputs": [
        {
          "internalType": "string",
          "name": "reportText",
          "type": "string"
        }
      ],
      "stateMutability": "view",
      "type": "function",
      "constant": true
    },
    {
      "inputs": [
        {
          "internalType": "address",
          "name": "account",
          "type": "address"
        },
        {
          "internalType": "address",
          "name": "target",
          "type": "address"
        },
        {
          "internalType": "uint256",
          "name": "amount",
          "type": "uint256"
        }
      ],
      "name": "issueCarbonAllowance",
      "outputs": [],
      "stateMutability": "nonpayable",
      "type": "function"
    },
    {
      "inputs": [
        {
          "internalType": "address",
          "name": "_to",
          "type": "address"
        },
        {
          "internalType": "uint256",
          "name": "_amount",
          "type": "uint256"
        },
        {
          "internalType": "uint256",
          "name": "_price",
          "type": "uint256"
        }
      ],
      "name": "carbonTransaction",
      "outputs": [],
      "stateMutability": "nonpayable",
      "type": "function"
    },
    {
      "inputs": [
        {
          "internalType": "string",
          "name": "report",
          "type": "string"
        }
      ],
      "name": "submitCarbonReport",
      "outputs": [],
      "stateMutability": "nonpayable",
      "type": "function"
    },
    {
      "inputs": [
        {
          "internalType": "address",
          "name": "account",
          "type": "address"
        }
      ],
      "name": "allowanceOf",
      "outputs": [
        {
          "internalType": "uint256",
          "name": "",
          "type": "uint256"
        }
      ],
      "stateMutability": "view",
      "type": "function",
      "constant": true
    },
    {
      "inputs": [
        {
          "internalType": "address",
          "name": "account",
          "type": "address"
        }
      ],
      "name": "reportOf",
      "outputs": [
        {
          "internalType": "string",
          "name": "",
          "type": "string"
        }
      ],
      "stateMutability": "view",
      "type": "function",
      "constant": true
    }
  ],
  "bytecode": "0x60806040523480156200001157600080fd5b5060405162001ad938038062001ad983398181016040528101906200003791906200016f565b816000806101000a81548173ffffffffffffffffffffffffffffffffffffffff021916908373ffffffffffffffffffffffffffffffffffffffff16021790555080600160006101000a81548173ffffffffffffffffffffffffffffffffffffffff021916908373ffffffffffffffffffffffffffffffffffffffff1602179055505050620001b6565b600080fd5b600073ffffffffffffffffffffffffffffffffffffffff82169050919050565b6000620000f282620000c5565b9050919050565b60006200010682620000e5565b9050919050565b6200011881620000f9565b81146200012457600080fd5b50565b60008151905062000138816200010d565b92915050565b6200014981620000e5565b81146200015557600080fd5b50565b60008151905062000169816200013e565b92915050565b60008060408385031215620001895762000188620000c0565b5b6000620001998582860162000127565b9250506020620001ac8582860162000158565b9150509250929050565b61191380620001c66000396000f3fe608060405234801561001057600080fd5b50600436106100b0576000357c010000000000000000000000000000000000000000000000000000000090048063bfd2385e11610083578063bfd2385e1461014f578063c3c7716a1461017f578063cafdc34c146101af578063f15a85ac146101cd578063f482bdc9146101e9576100b0565b8063116776c4146100b5578063764a56df146100e557806389080b9214610115578063ad2e126914610131575b600080fd5b6100cf60048036038101906100ca9190610d9e565b610205565b6040516100dc9190610e5b565b60405180910390f35b6100ff60048036038101906100fa9190610d9e565b6102d9565b60405161010c9190610e5b565b60405180910390f35b61012f600480360381019061012a9190610eb3565b61037f565b005b6101396106a4565b6040516101469190610f65565b60405180910390f35b61016960048036038101906101649190610d9e565b6106c8565b6040516101769190610f8f565b60405180910390f35b61019960048036038101906101949190610d9e565b610711565b6040516101a69190610f8f565b60405180910390f35b6101b7610729565b6040516101c49190610fb9565b60405180910390f35b6101e760048036038101906101e29190610fd4565b61074f565b005b61020360048036038101906101fe919061115c565b610978565b005b6060600360008373ffffffffffffffffffffffffffffffffffffffff1673ffffffffffffffffffffffffffffffffffffffff1681526020019081526020016000206000018054610254906111d4565b80601f0160208091040260200160405190810160405280929190818152602001828054610280906111d4565b80156102cd5780601f106102a2576101008083540402835291602001916102cd565b820191906000526020600020905b8154815290600101906020018083116102b057829003601f168201915b50505050509050919050565b60036020528060005260406000206000915090508060000180546102fc906111d4565b80601f0160208091040260200160405190810160405280929190818152602001828054610328906111d4565b80156103755780601f1061034a57610100808354040283529160200191610375565b820191906000526020600020905b81548152906001019060200180831161035857829003601f168201915b5050505050905081565b81600260008573ffffffffffffffffffffffffffffffffffffffff1673ffffffffffffffffffffffffffffffffffffffff168152602001908152602001600020541015610401576040517f08c379a00000000000000000000000000000000000000000000000000000000081526004016103f890611251565b60405180910390fd5b8060008054906101000a900473ffffffffffffffffffffffffffffffffffffffff1673ffffffffffffffffffffffffffffffffffffffff166370a08231336040518263ffffffff167c01000000000000000000000000000000000000000000000000000000000281526004016104779190610fb9565b602060405180830381865afa158015610494573d6000803e3d6000fd5b505050506040513d601f19601f820116820180604052508101906104b89190611286565b10156104f9576040517f08c379a00000000000000000000000000000000000000000000000000000000081526004016104f0906112ff565b60405180910390fd5b81600260003373ffffffffffffffffffffffffffffffffffffffff1673ffffffffffffffffffffffffffffffffffffffff16815260200190815260200160002054610544919061134e565b600260003373ffffffffffffffffffffffffffffffffffffffff1673ffffffffffffffffffffffffffffffffffffffff1681526020019081526020016000208190555081600260008573ffffffffffffffffffffffffffffffffffffffff1673ffffffffffffffffffffffffffffffffffffffff168152602001908152602001600020546105d2919061134e565b600260008573ffffffffffffffffffffffffffffffffffffffff1673ffffffffffffffffffffffffffffffffffffffff1681526020019081526020016000208190555061066233848460008054906101000a900473ffffffffffffffffffffffffffffffffffffffff1673ffffffffffffffffffffffffffffffffffffffff16610a29909392919063ffffffff16565b7f243222deee0acbb4e3d21131e70fb64a611eb50402204933f9b72aceadde724d338484846040516106979493929190611382565b60405180910390a1505050565b60008054906101000a900473ffffffffffffffffffffffffffffffffffffffff1681565b6000600260008373ffffffffffffffffffffffffffffffffffffffff1673ffffffffffffffffffffffffffffffffffffffff168152602001908152602001600020549050919050565b60026020528060005260406000206000915090505481565b600160009054906101000a900473ffffffffffffffffffffffffffffffffffffffff1681565b600160009054906101000a900473ffffffffffffffffffffffffffffffffffffffff1673ffffffffffffffffffffffffffffffffffffffff163373ffffffffffffffffffffffffffffffffffffffff16146107df576040517f08c379a00000000000000000000000000000000000000000000000000000000081526004016107d690611439565b60405180910390fd5b80600260008473ffffffffffffffffffffffffffffffffffffffff1673ffffffffffffffffffffffffffffffffffffffff1681526020019081526020016000205461082a919061134e565b600260008473ffffffffffffffffffffffffffffffffffffffff1673ffffffffffffffffffffffffffffffffffffffff16815260200190815260200160002054106108aa576040517f08c379a00000000000000000000000000000000000000000000000000000000081526004016108a1906114a5565b60405180910390fd5b80600260008473ffffffffffffffffffffffffffffffffffffffff1673ffffffffffffffffffffffffffffffffffffffff168152602001908152602001600020546108f5919061134e565b600260008473ffffffffffffffffffffffffffffffffffffffff1673ffffffffffffffffffffffffffffffffffffffff168152602001908152602001600020819055507fdf5ca8f59f0f474cfbc42a1f8788d51379d11b245dd78d983f41cffe81c5f45e83838360405161096b939291906114c5565b60405180910390a1505050565b604051806020016040528082815250600360003373ffffffffffffffffffffffffffffffffffffffff1673ffffffffffffffffffffffffffffffffffffffff16815260200190815260200160002060008201518160000190816109db91906116a4565b509050507ffb484233b8b1462403137f3ee1d35494663faaefa9b80f36ba86b0a77c27ec4e33604051806020016040528084815250604051610a1e9291906117ea565b60405180910390a150565b610ac1848573ffffffffffffffffffffffffffffffffffffffff166323b872dd868686604051602401610a5e939291906114c5565b60405160208183030381529060405291507c0100000000000000000000000000000000000000000000000000000000026020820180517bffffffffffffffffffffffffffffffffffffffffffffffffffffffff8381831617835250505050610ac7565b50505050565b6000610af2828473ffffffffffffffffffffffffffffffffffffffff16610b5e90919063ffffffff16565b90506000815114158015610b17575080806020019051810190610b159190611852565b155b15610b5957826040517f5274afe7000000000000000000000000000000000000000000000000000000008152600401610b509190610fb9565b60405180910390fd5b505050565b6060610b6c83836000610b74565b905092915050565b6060813073ffffffffffffffffffffffffffffffffffffffff16311015610bd257306040517fcd786059000000000000000000000000000000000000000000000000000000008152600401610bc99190610fb9565b60405180910390fd5b6000808573ffffffffffffffffffffffffffffffffffffffff168486604051610bfb91906118c6565b60006040518083038185875af1925050503d8060008114610c38576040519150601f19603f3d011682016040523d82523d6000602084013e610c3d565b606091505b5091509150610c4d868383610c58565b925050509392505050565b606082610c6d57610c6882610ce7565b610cdf565b60008251148015610c95575060008473ffffffffffffffffffffffffffffffffffffffff163b145b15610cd757836040517f9996b315000000000000000000000000000000000000000000000000000000008152600401610cce9190610fb9565b60405180910390fd5b819050610ce0565b5b9392505050565b600081511115610cfa5780518082602001fd5b6040517f1425ea4200000000000000000000000000000000000000000000000000000000815260040160405180910390fd5b6000604051905090565b600080fd5b600080fd5b600073ffffffffffffffffffffffffffffffffffffffff82169050919050565b6000610d6b82610d40565b9050919050565b610d7b81610d60565b8114610d8657600080fd5b50565b600081359050610d9881610d72565b92915050565b600060208284031215610db457610db3610d36565b5b6000610dc284828501610d89565b91505092915050565b600081519050919050565b600082825260208201905092915050565b60005b83811015610e05578082015181840152602081019050610dea565b60008484015250505050565b6000601f19601f8301169050919050565b6000610e2d82610dcb565b610e378185610dd6565b9350610e47818560208601610de7565b610e5081610e11565b840191505092915050565b60006020820190508181036000830152610e758184610e22565b905092915050565b6000819050919050565b610e9081610e7d565b8114610e9b57600080fd5b50565b600081359050610ead81610e87565b92915050565b600080600060608486031215610ecc57610ecb610d36565b5b6000610eda86828701610d89565b9350506020610eeb86828701610e9e565b9250506040610efc86828701610e9e565b9150509250925092565b6000819050919050565b6000610f2b610f26610f2184610d40565b610f06565b610d40565b9050919050565b6000610f3d82610f10565b9050919050565b6000610f4f82610f32565b9050919050565b610f5f81610f44565b82525050565b6000602082019050610f7a6000830184610f56565b92915050565b610f8981610e7d565b82525050565b6000602082019050610fa46000830184610f80565b92915050565b610fb381610d60565b82525050565b6000602082019050610fce6000830184610faa565b92915050565b600080600060608486031215610fed57610fec610d36565b5b6000610ffb86828701610d89565b935050602061100c86828701610d89565b925050604061101d86828701610e9e565b9150509250925092565b600080fd5b600080fd5b7f4e487b7100000000000000000000000000000000000000000000000000000000600052604160045260246000fd5b61106982610e11565b810181811067ffffffffffffffff8211171561108857611087611031565b5b80604052505050565b600061109b610d2c565b90506110a78282611060565b919050565b600067ffffffffffffffff8211156110c7576110c6611031565b5b6110d082610e11565b9050602081019050919050565b82818337600083830152505050565b60006110ff6110fa846110ac565b611091565b90508281526020810184848401111561111b5761111a61102c565b5b6111268482856110dd565b509392505050565b600082601f83011261114357611142611027565b5b81356111538482602086016110ec565b91505092915050565b60006020828403121561117257611171610d36565b5b600082013567ffffffffffffffff8111156111905761118f610d3b565b5b61119c8482850161112e565b91505092915050565b7f4e487b7100000000000000000000000000000000000000000000000000000000600052602260045260246000fd5b600060028204905060018216806111ec57607f821691505b6020821081036111ff576111fe6111a5565b5b50919050565b7f496e73756666696369656e7420636172626f6e20616c6c6f77616e6365000000600082015250565b600061123b601d83610dd6565b915061124682611205565b602082019050919050565b6000602082019050818103600083015261126a8161122e565b9050919050565b60008151905061128081610e87565b92915050565b60006020828403121561129c5761129b610d36565b5b60006112aa84828501611271565b91505092915050565b7f496e737566666963656e7420636172626f6e20636f696e000000000000000000600082015250565b60006112e9601783610dd6565b91506112f4826112b3565b602082019050919050565b60006020820190508181036000830152611318816112dc565b9050919050565b7f4e487b7100000000000000000000000000000000000000000000000000000000600052601160045260246000fd5b600061135982610e7d565b915061136483610e7d565b925082820190508082111561137c5761137b61131f565b5b92915050565b60006080820190506113976000830187610faa565b6113a46020830186610faa565b6113b16040830185610f80565b6113be6060830184610f80565b95945050505050565b7f4f6e6c7920636172626f6e206973737565722063616e20697373756520616c6c60008201527f6f77616e63650000000000000000000000000000000000000000000000000000602082015250565b6000611423602683610dd6565b915061142e826113c7565b604082019050919050565b6000602082019050818103600083015261145281611416565b9050919050565b7f4f766572666c6f77210000000000000000000000000000000000000000000000600082015250565b600061148f600983610dd6565b915061149a82611459565b602082019050919050565b600060208201905081810360008301526114be81611482565b9050919050565b60006060820190506114da6000830186610faa565b6114e76020830185610faa565b6114f46040830184610f80565b949350505050565b60008190508160005260206000209050919050565b60006020601f8301049050919050565b60008160020a8302905092915050565b6000600883026115617fffffffffffffffffffffffffffffffffffffffffffffffffffffffffffffffff82611521565b61156b8683611521565b95508019841693508086168417925050509392505050565b600061159e61159961159484610e7d565b610f06565b610e7d565b9050919050565b6000819050919050565b6115b883611583565b6115cc6115c4826115a5565b848454611531565b825550505050565b600090565b6115e16115d4565b6115ec8184846115af565b505050565b5b81811015611610576116056000826115d9565b6001810190506115f2565b5050565b601f82111561165557611626816114fc565b61162f84611511565b8101602085101561163e578190505b61165261164a85611511565b8301826115f1565b50505b505050565b60008160020a8304905092915050565b600061167b6000198460080261165a565b1980831691505092915050565b6000611694838361166a565b9150826002028217905092915050565b6116ad82610dcb565b67ffffffffffffffff8111156116c6576116c5611031565b5b6116d082546111d4565b6116db828285611614565b600060209050601f83116001811461170e57600084156116fc578287015190505b6117068582611688565b86555061176e565b601f19841661171c866114fc565b60005b828110156117445784890151825560018201915060208501945060208101905061171f565b86831015611761578489015161175d601f89168261166a565b8355505b6001600288020188555050505b505050505050565b600082825260208201905092915050565b600061179282610dcb565b61179c8185611776565b93506117ac818560208601610de7565b6117b581610e11565b840191505092915050565b600060208301600083015184820360008601526117dd8282611787565b9150508091505092915050565b60006040820190506117ff6000830185610faa565b818103602083015261181181846117c0565b90509392505050565b60008115159050919050565b61182f8161181a565b811461183a57600080fd5b50565b60008151905061184c81611826565b92915050565b60006020828403121561186857611867610d36565b5b60006118768482850161183d565b91505092915050565b600081519050919050565b600081905092915050565b60006118a08261187f565b6118aa818561188a565b93506118ba818560208601610de7565b80840191505092915050565b60006118d28284611895565b91508190509291505056fea2646970667358221220e272926264243231ff8ef81e2c8cc22d8d2d35cf1bbe0442814530bee96597a164736f6c63430008150033",
  "immutableReferences": {},
  "source": "// SPDX-License-Identifier: MIT\r\npragma solidity ^0.8.0;\r\n\r\nimport \"@openzeppelin/contracts/token/ERC20/IERC20.sol\";\r\nimport \"@openzeppelin/contracts/token/ERC20/ERC20.sol\";\r\nimport \"@openzeppelin/contracts/utils/Address.sol\";\r\nimport \"@openzeppelin/contracts/token/ERC20/utils/SafeERC20.sol\";\r\n\r\ncontract CarbonCredits {\r\n    using SafeERC20 for IERC20;\r\n    using Address for address;\r\n\r\n    IERC20 public carbonCoin; //  --IERC20SafeERC20\r\n    address public carbonIssuer; // \r\n    struct CarbonReport {\r\n        string reportText; // \r\n    }\r\n\r\n    mapping(address => uint256) public carbonAllowance; // \r\n    mapping(address => CarbonReport) public carbonReports; // \r\n\r\n    event CarbonAllowanceIssued(address account,address target, uint256 amount);\r\n    event CarbonTransaction(address _from, address _to, uint256 _amount, uint256 _price);\r\n    event CarbonReportSubmitted(address account,CarbonReport carbonReport);\r\n\r\n    constructor(IERC20 _carbonCoin, address _carbonIssuer) {\r\n        carbonCoin = _carbonCoin;\r\n        carbonIssuer = _carbonIssuer;\r\n    }\r\n\r\n    // \r\n    function issueCarbonAllowance(address account,address target, uint256 amount) public {\r\n        require(msg.sender == carbonIssuer, \"Only carbon issuer can issue allowance\");\r\n        require(carbonAllowance[target] < carbonAllowance[target] + amount, \"Overflow!\");\r\n        carbonAllowance[target] = carbonAllowance[target] + amount;\r\n        emit CarbonAllowanceIssued(account,target,amount);\r\n    }\r\n\r\n    // msg.sender\r\n    function carbonTransaction(address _to, uint256 _amount, uint256 _price) public {\r\n        require(carbonAllowance[_to] >= _amount, \"Insufficient carbon allowance\"); // \r\n        require(carbonCoin.balanceOf(msg.sender) >= _price, \"Insufficent carbon coin\"); // \r\n        carbonAllowance[msg.sender] = carbonAllowance[msg.sender] + _amount; // \r\n        carbonAllowance[_to] = carbonAllowance[_to] + _amount; // \r\n        carbonCoin.safeTransferFrom(msg.sender, _to, _amount); //       \r\n        emit CarbonTransaction(msg.sender,_to,_amount,_price);\r\n    }\r\n\r\n    // \r\n    function submitCarbonReport(string memory report) public{\r\n        carbonReports[msg.sender] = CarbonReport(report);\r\n        emit CarbonReportSubmitted(msg.sender, CarbonReport(report));\r\n    }\r\n\r\n    // \r\n    function allowanceOf(address account) public view returns (uint256){\r\n        return carbonAllowance[account];\r\n    }\r\n\r\n    // \r\n    function reportOf(address account) public view returns (string memory){\r\n        return carbonReports[account].reportText;\r\n    }\r\n\r\n}\r\n",
  "sourcePath": "E:\\goPro\\carbon-neutral-trading-system1\\truffle\\contracts\\CarbonCredits.sol",
  "compiler": {
    "name": "solc",
    "version": "0.8.21+commit.d9974bed.Emscripten.clang"
  },
  "schemaVersion": "3.4.16",
  "updatedAt": "2024-03-10T12:55:45.370Z",
  "networkType": "ethereum",
  "devdoc": {
    "errors": {
      "AddressEmptyCode(address)": [
        {
          "details": "There's no code at `target` (it is not a contract)."
        }
      ],
      "AddressInsufficientBalance(address)": [
        {
          "details": "The ETH balance of the account is not enough to perform the operation."
        }
      ],
      "FailedInnerCall()": [
        {
          "details": "A call to an address target failed. The target may have reverted."
        }
      ],
      "SafeERC20FailedOperation(address)": [
        {
          "details": "An operation with an ERC20 token failed."
        }
      ]
    },
    "kind": "dev",
    "methods": {},
    "version": 1
  },
  "userdoc": {
    "kind": "user",
    "methods": {},
    "version": 1
  }
}