{
  "contractName": "CarbonEmission",
  "abi": [
    {
      "inputs": [
        {
          "internalType": "address",
          "name": "",
          "type": "address"
        }
      ],
      "name": "carbonCredits",
      "outputs": [
        {
          "internalType": "uint256",
          "name": "",
          "type": "uint256"
        }
      ],
      "stateMutability": "view",
      "type": "function"
    },
    {
      "inputs": [
        {
          "internalType": "address",
          "name": "",
          "type": "address"
        }
      ],
      "name": "carbonReports",
      "outputs": [
        {
          "internalType": "string",
          "name": "reportText",
          "type": "string"
        }
      ],
      "stateMutability": "view",
      "type": "function"
    },
    {
      "inputs": [
        {
          "internalType": "address",
          "name": "user",
          "type": "address"
        },
        {
          "internalType": "uint256",
          "name": "credits",
          "type": "uint256"
        }
      ],
      "name": "addCarbonCredits",
      "outputs": [],
      "stateMutability": "nonpayable",
      "type": "function"
    },
    {
      "inputs": [
        {
          "internalType": "string",
          "name": "report",
          "type": "string"
        }
      ],
      "name": "submitCarbonReport",
      "outputs": [],
      "stateMutability": "nonpayable",
      "type": "function"
    }
  ],
  "bytecode": "0x608060405234801561000f575f80fd5b506109018061001d5f395ff3fe608060405234801561000f575f80fd5b506004361061004a575f3560e01c8063764a56df1461004e5780637aa2bdd41461007e578063efae5866146100ae578063f482bdc9146100ca575b5f80fd5b610068600480360381019061006391906102c1565b6100e6565b6040516100759190610376565b60405180910390f35b610098600480360381019061009391906102c1565b610186565b6040516100a591906103ae565b60405180910390f35b6100c860048036038101906100c391906103f1565b61019a565b005b6100e460048036038101906100df919061055b565b6101f0565b005b6001602052805f5260405f205f91509050805f018054610105906105cf565b80601f0160208091040260200160405190810160405280929190818152602001828054610131906105cf565b801561017c5780601f106101535761010080835404028352916020019161017c565b820191905f5260205f20905b81548152906001019060200180831161015f57829003601f168201915b5050505050905081565b5f602052805f5260405f205f915090505481565b805f808473ffffffffffffffffffffffffffffffffffffffff1673ffffffffffffffffffffffffffffffffffffffff1681526020019081526020015f205f8282546101e5919061062c565b925050819055505050565b60405180602001604052808281525060015f3373ffffffffffffffffffffffffffffffffffffffff1673ffffffffffffffffffffffffffffffffffffffff1681526020019081526020015f205f820151815f01908161024f91906107fc565b5090505050565b5f604051905090565b5f80fd5b5f80fd5b5f73ffffffffffffffffffffffffffffffffffffffff82169050919050565b5f61029082610267565b9050919050565b6102a081610286565b81146102aa575f80fd5b50565b5f813590506102bb81610297565b92915050565b5f602082840312156102d6576102d561025f565b5b5f6102e3848285016102ad565b91505092915050565b5f81519050919050565b5f82825260208201905092915050565b5f5b83811015610323578082015181840152602081019050610308565b5f8484015250505050565b5f601f19601f8301169050919050565b5f610348826102ec565b61035281856102f6565b9350610362818560208601610306565b61036b8161032e565b840191505092915050565b5f6020820190508181035f83015261038e818461033e565b905092915050565b5f819050919050565b6103a881610396565b82525050565b5f6020820190506103c15f83018461039f565b92915050565b6103d081610396565b81146103da575f80fd5b50565b5f813590506103eb816103c7565b92915050565b5f80604083850312156104075761040661025f565b5b5f610414858286016102ad565b9250506020610425858286016103dd565b9150509250929050565b5f80fd5b5f80fd5b7f4e487b71000000000000000000000000000000000000000000000000000000005f52604160045260245ffd5b61046d8261032e565b810181811067ffffffffffffffff8211171561048c5761048b610437565b5b80604052505050565b5f61049e610256565b90506104aa8282610464565b919050565b5f67ffffffffffffffff8211156104c9576104c8610437565b5b6104d28261032e565b9050602081019050919050565b828183375f83830152505050565b5f6104ff6104fa846104af565b610495565b90508281526020810184848401111561051b5761051a610433565b5b6105268482856104df565b509392505050565b5f82601f8301126105425761054161042f565b5b81356105528482602086016104ed565b91505092915050565b5f602082840312156105705761056f61025f565b5b5f82013567ffffffffffffffff81111561058d5761058c610263565b5b6105998482850161052e565b91505092915050565b7f4e487b71000000000000000000000000000000000000000000000000000000005f52602260045260245ffd5b5f60028204905060018216806105e657607f821691505b6020821081036105f9576105f86105a2565b5b50919050565b7f4e487b71000000000000000000000000000000000000000000000000000000005f52601160045260245ffd5b5f61063682610396565b915061064183610396565b9250828201905080821115610659576106586105ff565b5b92915050565b5f819050815f5260205f209050919050565b5f6020601f8301049050919050565b5f82821b905092915050565b5f600883026106bb7fffffffffffffffffffffffffffffffffffffffffffffffffffffffffffffffff82610680565b6106c58683610680565b95508019841693508086168417925050509392505050565b5f819050919050565b5f6107006106fb6106f684610396565b6106dd565b610396565b9050919050565b5f819050919050565b610719836106e6565b61072d61072582610707565b84845461068c565b825550505050565b5f90565b610741610735565b61074c818484610710565b505050565b5b8181101561076f576107645f82610739565b600181019050610752565b5050565b601f8211156107b4576107858161065f565b61078e84610671565b8101602085101561079d578190505b6107b16107a985610671565b830182610751565b50505b505050565b5f82821c905092915050565b5f6107d45f19846008026107b9565b1980831691505092915050565b5f6107ec83836107c5565b9150826002028217905092915050565b610805826102ec565b67ffffffffffffffff81111561081e5761081d610437565b5b61082882546105cf565b610833828285610773565b5f60209050601f831160018114610864575f8415610852578287015190505b61085c85826107e1565b8655506108c3565b601f1984166108728661065f565b5f5b8281101561089957848901518255600182019150602085019450602081019050610874565b868310156108b657848901516108b2601f8916826107c5565b8355505b6001600288020188555050505b50505050505056fea2646970667358221220e5b5e82d29bfbd0f34f9b96233ef373866f12905c1ad152df3a971779908b3ef64736f6c63430008150033",
  "immutableReferences": {},
  "source": "pragma solidity ^0.8.0;\r\n\r\ncontract CarbonEmission {\r\n    struct CarbonReport {\r\n        string reportText;\r\n    }\r\n\r\n    mapping(address => uint256) public carbonCredits;\r\n    mapping(address => CarbonReport) public carbonReports;\r\n\r\n    function addCarbonCredits(address user, uint256 credits) public {\r\n        carbonCredits[user] += credits;\r\n    }\r\n\r\n    function submitCarbonReport(string memory report) public {\r\n        carbonReports[msg.sender] = CarbonReport(report);\r\n    }\r\n}\r\n",
  "sourcePath": "G:\\CNTS\\carbon-neutral-trading-system\\truffle\\contracts\\CarbonEmission.sol",
  "compiler": {
    "name": "solc",
    "version": "0.8.21+commit.d9974bed.Emscripten.clang"
  },
  "schemaVersion": "3.4.16",
  "updatedAt": "2024-03-07T02:05:49.170Z",
  "devdoc": {
    "kind": "dev",
    "methods": {},
    "version": 1
  },
  "userdoc": {
    "kind": "user",
    "methods": {},
    "version": 1
  }
}