{
  "contractName": "CarbonCredits",
  "abi": [
    {
      "inputs": [
        {
          "internalType": "contract IERC20",
          "name": "_carbonToken",
          "type": "address"
        },
        {
          "internalType": "address",
          "name": "_carbonIssuer",
          "type": "address"
        }
      ],
      "stateMutability": "nonpayable",
      "type": "constructor"
    },
    {
      "anonymous": false,
      "inputs": [
        {
          "indexed": false,
          "internalType": "address",
          "name": "account",
          "type": "address"
        },
        {
          "indexed": false,
          "internalType": "address",
          "name": "target",
          "type": "address"
        },
        {
          "indexed": false,
          "internalType": "uint256",
          "name": "amount",
          "type": "uint256"
        }
      ],
      "name": "CarbonAllowanceIssued",
      "type": "event"
    },
    {
      "anonymous": false,
      "inputs": [
        {
          "indexed": false,
          "internalType": "address",
          "name": "account",
          "type": "address"
        },
        {
          "indexed": false,
          "internalType": "uint256",
          "name": "amount",
          "type": "uint256"
        }
      ],
      "name": "CarbonCreditsPublished",
      "type": "event"
    },
    {
      "inputs": [
        {
          "internalType": "address",
          "name": "",
          "type": "address"
        }
      ],
      "name": "carbonAllowance",
      "outputs": [
        {
          "internalType": "uint256",
          "name": "",
          "type": "uint256"
        }
      ],
      "stateMutability": "view",
      "type": "function"
    },
    {
      "inputs": [],
      "name": "carbonIssuer",
      "outputs": [
        {
          "internalType": "address",
          "name": "",
          "type": "address"
        }
      ],
      "stateMutability": "view",
      "type": "function"
    },
    {
      "inputs": [],
      "name": "carbonToken",
      "outputs": [
        {
          "internalType": "contract IERC20",
          "name": "",
          "type": "address"
        }
      ],
      "stateMutability": "view",
      "type": "function"
    },
    {
      "inputs": [
        {
          "internalType": "address",
          "name": "account",
          "type": "address"
        },
        {
          "internalType": "address",
          "name": "target",
          "type": "address"
        },
        {
          "internalType": "uint256",
          "name": "amount",
          "type": "uint256"
        }
      ],
      "name": "issueCarbonAllowance",
      "outputs": [],
      "stateMutability": "nonpayable",
      "type": "function"
    },
    {
      "inputs": [
        {
          "internalType": "uint256",
          "name": "amount",
          "type": "uint256"
        }
      ],
      "name": "publishCarbonCredits",
      "outputs": [],
      "stateMutability": "nonpayable",
      "type": "function"
    }
  ],
  "bytecode": "0x608060405234801561000f575f80fd5b50604051610ab7380380610ab783398181016040528101906100319190610150565b815f806101000a81548173ffffffffffffffffffffffffffffffffffffffff021916908373ffffffffffffffffffffffffffffffffffffffff1602179055508060015f6101000a81548173ffffffffffffffffffffffffffffffffffffffff021916908373ffffffffffffffffffffffffffffffffffffffff160217905550505061018e565b5f80fd5b5f73ffffffffffffffffffffffffffffffffffffffff82169050919050565b5f6100e4826100bb565b9050919050565b5f6100f5826100da565b9050919050565b610105816100eb565b811461010f575f80fd5b50565b5f81519050610120816100fc565b92915050565b61012f816100da565b8114610139575f80fd5b50565b5f8151905061014a81610126565b92915050565b5f8060408385031215610166576101656100b7565b5b5f61017385828601610112565b92505060206101848582860161013c565b9150509250929050565b61091c8061019b5f395ff3fe608060405234801561000f575f80fd5b5060043610610055575f3560e01c806382a71ef214610059578063c3c7716a14610077578063cafdc34c146100a7578063cb3712d3146100c5578063f15a85ac146100e1575b5f80fd5b6100616100fd565b60405161006e9190610510565b60405180910390f35b610091600480360381019061008c9190610568565b610120565b60405161009e91906105ab565b60405180910390f35b6100af610135565b6040516100bc91906105d3565b60405180910390f35b6100df60048036038101906100da9190610616565b61015a565b005b6100fb60048036038101906100f69190610641565b61033d565b005b5f8054906101000a900473ffffffffffffffffffffffffffffffffffffffff1681565b6002602052805f5260405f205f915090505481565b60015f9054906101000a900473ffffffffffffffffffffffffffffffffffffffff1681565b8060025f3373ffffffffffffffffffffffffffffffffffffffff1673ffffffffffffffffffffffffffffffffffffffff1681526020019081526020015f205410156101da576040517f08c379a00000000000000000000000000000000000000000000000000000000081526004016101d1906106eb565b60405180910390fd5b8060025f3373ffffffffffffffffffffffffffffffffffffffff1673ffffffffffffffffffffffffffffffffffffffff1681526020019081526020015f20546102239190610736565b60025f3373ffffffffffffffffffffffffffffffffffffffff1673ffffffffffffffffffffffffffffffffffffffff1681526020019081526020015f20819055505f8054906101000a900473ffffffffffffffffffffffffffffffffffffffff1673ffffffffffffffffffffffffffffffffffffffff166323b872dd3330846040518463ffffffff1660e01b81526004016102c093929190610769565b6020604051808303815f875af11580156102dc573d5f803e3d5ffd5b505050506040513d601f19601f8201168201806040525081019061030091906107d3565b507f259129b17fddee01c87e33938031482240cd5e1d5ad5758e9aad5bd8ccdf45b933826040516103329291906107fe565b60405180910390a150565b60015f9054906101000a900473ffffffffffffffffffffffffffffffffffffffff1673ffffffffffffffffffffffffffffffffffffffff163373ffffffffffffffffffffffffffffffffffffffff16146103cc576040517f08c379a00000000000000000000000000000000000000000000000000000000081526004016103c390610895565b60405180910390fd5b8060025f8473ffffffffffffffffffffffffffffffffffffffff1673ffffffffffffffffffffffffffffffffffffffff1681526020019081526020015f205461041591906108b3565b60025f8473ffffffffffffffffffffffffffffffffffffffff1673ffffffffffffffffffffffffffffffffffffffff1681526020019081526020015f20819055507fdf5ca8f59f0f474cfbc42a1f8788d51379d11b245dd78d983f41cffe81c5f45e83838360405161048993929190610769565b60405180910390a1505050565b5f73ffffffffffffffffffffffffffffffffffffffff82169050919050565b5f819050919050565b5f6104d86104d36104ce84610496565b6104b5565b610496565b9050919050565b5f6104e9826104be565b9050919050565b5f6104fa826104df565b9050919050565b61050a816104f0565b82525050565b5f6020820190506105235f830184610501565b92915050565b5f80fd5b5f61053782610496565b9050919050565b6105478161052d565b8114610551575f80fd5b50565b5f813590506105628161053e565b92915050565b5f6020828403121561057d5761057c610529565b5b5f61058a84828501610554565b91505092915050565b5f819050919050565b6105a581610593565b82525050565b5f6020820190506105be5f83018461059c565b92915050565b6105cd8161052d565b82525050565b5f6020820190506105e65f8301846105c4565b92915050565b6105f581610593565b81146105ff575f80fd5b50565b5f81359050610610816105ec565b92915050565b5f6020828403121561062b5761062a610529565b5b5f61063884828501610602565b91505092915050565b5f805f6060848603121561065857610657610529565b5b5f61066586828701610554565b935050602061067686828701610554565b925050604061068786828701610602565b9150509250925092565b5f82825260208201905092915050565b7f496e73756666696369656e7420636172626f6e20616c6c6f77616e63650000005f82015250565b5f6106d5601d83610691565b91506106e0826106a1565b602082019050919050565b5f6020820190508181035f830152610702816106c9565b9050919050565b7f4e487b71000000000000000000000000000000000000000000000000000000005f52601160045260245ffd5b5f61074082610593565b915061074b83610593565b925082820390508181111561076357610762610709565b5b92915050565b5f60608201905061077c5f8301866105c4565b61078960208301856105c4565b610796604083018461059c565b949350505050565b5f8115159050919050565b6107b28161079e565b81146107bc575f80fd5b50565b5f815190506107cd816107a9565b92915050565b5f602082840312156107e8576107e7610529565b5b5f6107f5848285016107bf565b91505092915050565b5f6040820190506108115f8301856105c4565b61081e602083018461059c565b9392505050565b7f4f6e6c7920636172626f6e206973737565722063616e20697373756520616c6c5f8201527f6f77616e63650000000000000000000000000000000000000000000000000000602082015250565b5f61087f602683610691565b915061088a82610825565b604082019050919050565b5f6020820190508181035f8301526108ac81610873565b9050919050565b5f6108bd82610593565b91506108c883610593565b92508282019050808211156108e0576108df610709565b5b9291505056fea26469706673582212209da82eb3ce075bcf6ed95a10895c3959f778dc22fe92b858115fa86371a78abb64736f6c63430008150033",
  "immutableReferences": {},
  "source": "// SPDX-License-Identifier: MIT\r\npragma solidity ^0.8.0;\r\n\r\nimport \"@openzeppelin/contracts/token/ERC20/ERC20.sol\";\r\nimport \"@openzeppelin/contracts/utils/math/SafeCast.sol\";\r\n\r\ncontract CarbonCredits {\r\n    using SafeCast for uint256;\r\n\r\n    IERC20 public carbonToken; // \r\n    address public carbonIssuer; // \r\n    mapping(address => uint256) public carbonAllowance; // \r\n\r\n    event CarbonAllowanceIssued(address account,address target, uint256 amount);\r\n    event CarbonCreditsPublished(address account, uint256 amount);\r\n\r\n    constructor(IERC20 _carbonToken, address _carbonIssuer) {\r\n        carbonToken = _carbonToken;\r\n        carbonIssuer = _carbonIssuer;\r\n    }\r\n\r\n    function issueCarbonAllowance(address account,address target, uint256 amount) public {\r\n        require(msg.sender == carbonIssuer, \"Only carbon issuer can issue allowance\");\r\n        carbonAllowance[target] = carbonAllowance[target] + amount;\r\n        emit CarbonAllowanceIssued(account,target,amount);\r\n    }\r\n\r\n    function publishCarbonCredits(uint256 amount) public {\r\n        require(carbonAllowance[msg.sender] >= amount, \"Insufficient carbon allowance\");\r\n        carbonAllowance[msg.sender] = carbonAllowance[msg.sender] - amount;\r\n        carbonToken.transferFrom(msg.sender, address(this), amount);\r\n        emit CarbonCreditsPublished(msg.sender, amount);\r\n    }\r\n}\r\n",
  "sourcePath": "G:\\CNTS\\carbon-neutral-trading-system\\truffle\\contracts\\CarbonCredits.sol",
  "compiler": {
    "name": "solc",
    "version": "0.8.21+commit.d9974bed.Emscripten.clang"
  },
  "schemaVersion": "3.4.16",
  "updatedAt": "2024-02-27T04:13:19.997Z",
  "devdoc": {
    "kind": "dev",
    "methods": {},
    "version": 1
  },
  "userdoc": {
    "kind": "user",
    "methods": {},
    "version": 1
  }
}