{
  "contractName": "CarbonCredits",
  "abi": [
    {
      "inputs": [
        {
          "internalType": "contract IERC20",
          "name": "_carbonCoin",
          "type": "address"
        },
        {
          "internalType": "address",
          "name": "_carbonIssuer",
          "type": "address"
        }
      ],
      "stateMutability": "nonpayable",
      "type": "constructor"
    },
    {
      "anonymous": false,
      "inputs": [
        {
          "indexed": false,
          "internalType": "address",
          "name": "target",
          "type": "address"
        },
        {
          "indexed": false,
          "internalType": "uint256",
          "name": "amount",
          "type": "uint256"
        }
      ],
      "name": "CarbonAllowanceBurned",
      "type": "event"
    },
    {
      "anonymous": false,
      "inputs": [
        {
          "indexed": false,
          "internalType": "address",
          "name": "target",
          "type": "address"
        },
        {
          "indexed": false,
          "internalType": "uint256",
          "name": "amount",
          "type": "uint256"
        }
      ],
      "name": "CarbonAllowanceIssued",
      "type": "event"
    },
    {
      "anonymous": false,
      "inputs": [
        {
          "indexed": false,
          "internalType": "address",
          "name": "account",
          "type": "address"
        },
        {
          "components": [
            {
              "internalType": "string",
              "name": "reportText",
              "type": "string"
            }
          ],
          "indexed": false,
          "internalType": "struct CarbonCredits.CarbonReport",
          "name": "carbonReport",
          "type": "tuple"
        }
      ],
      "name": "CarbonReportSubmitted",
      "type": "event"
    },
    {
      "anonymous": false,
      "inputs": [
        {
          "indexed": false,
          "internalType": "address",
          "name": "_from",
          "type": "address"
        },
        {
          "indexed": false,
          "internalType": "address",
          "name": "_to",
          "type": "address"
        },
        {
          "indexed": false,
          "internalType": "uint256",
          "name": "_amount",
          "type": "uint256"
        },
        {
          "indexed": false,
          "internalType": "uint256",
          "name": "_price",
          "type": "uint256"
        }
      ],
      "name": "CarbonTransaction",
      "type": "event"
    },
    {
      "inputs": [
        {
          "internalType": "address",
          "name": "",
          "type": "address"
        }
      ],
      "name": "carbonAllowance",
      "outputs": [
        {
          "internalType": "uint256",
          "name": "",
          "type": "uint256"
        }
      ],
      "stateMutability": "view",
      "type": "function",
      "constant": true
    },
    {
      "inputs": [],
      "name": "carbonCoin",
      "outputs": [
        {
          "internalType": "contract IERC20",
          "name": "",
          "type": "address"
        }
      ],
      "stateMutability": "view",
      "type": "function",
      "constant": true
    },
    {
      "inputs": [
        {
          "internalType": "address",
          "name": "",
          "type": "address"
        }
      ],
      "name": "carbonReports",
      "outputs": [
        {
          "internalType": "string",
          "name": "reportText",
          "type": "string"
        }
      ],
      "stateMutability": "view",
      "type": "function",
      "constant": true
    },
    {
      "inputs": [
        {
          "internalType": "address",
          "name": "target",
          "type": "address"
        },
        {
          "internalType": "uint256",
          "name": "amount",
          "type": "uint256"
        }
      ],
      "name": "issueCarbonAllowance",
      "outputs": [],
      "stateMutability": "nonpayable",
      "type": "function"
    },
    {
      "inputs": [
        {
          "internalType": "address",
          "name": "target",
          "type": "address"
        },
        {
          "internalType": "uint256",
          "name": "amount",
          "type": "uint256"
        }
      ],
      "name": "burnCarbonAllowance",
      "outputs": [],
      "stateMutability": "nonpayable",
      "type": "function"
    },
    {
      "inputs": [
        {
          "internalType": "address",
          "name": "_to",
          "type": "address"
        },
        {
          "internalType": "uint256",
          "name": "_amount",
          "type": "uint256"
        },
        {
          "internalType": "uint256",
          "name": "_price",
          "type": "uint256"
        }
      ],
      "name": "carbonTransaction",
      "outputs": [],
      "stateMutability": "nonpayable",
      "type": "function"
    },
    {
      "inputs": [
        {
          "internalType": "string",
          "name": "report",
          "type": "string"
        }
      ],
      "name": "submitCarbonReport",
      "outputs": [],
      "stateMutability": "nonpayable",
      "type": "function"
    },
    {
      "inputs": [
        {
          "internalType": "address",
          "name": "account",
          "type": "address"
        }
      ],
      "name": "allowanceOf",
      "outputs": [
        {
          "internalType": "uint256",
          "name": "",
          "type": "uint256"
        }
      ],
      "stateMutability": "view",
      "type": "function",
      "constant": true
    },
    {
      "inputs": [
        {
          "internalType": "address",
          "name": "account",
          "type": "address"
        }
      ],
      "name": "reportOf",
      "outputs": [
        {
          "internalType": "string",
          "name": "",
          "type": "string"
        }
      ],
      "stateMutability": "view",
      "type": "function",
      "constant": true
    }
  ],
  "bytecode": "0x60806040523480156200001157600080fd5b50604051620019f4380380620019f483398181016040528101906200003791906200016f565b816000806101000a81548173ffffffffffffffffffffffffffffffffffffffff021916908373ffffffffffffffffffffffffffffffffffffffff16021790555080600160006101000a81548173ffffffffffffffffffffffffffffffffffffffff021916908373ffffffffffffffffffffffffffffffffffffffff1602179055505050620001b6565b600080fd5b600073ffffffffffffffffffffffffffffffffffffffff82169050919050565b6000620000f282620000c5565b9050919050565b60006200010682620000e5565b9050919050565b6200011881620000f9565b81146200012457600080fd5b50565b60008151905062000138816200010d565b92915050565b6200014981620000e5565b81146200015557600080fd5b50565b60008151905062000169816200013e565b92915050565b60008060408385031215620001895762000188620000c0565b5b6000620001998582860162000127565b9250506020620001ac8582860162000158565b9150509250929050565b61182e80620001c66000396000f3fe608060405234801561001057600080fd5b50600436106100b0576000357c010000000000000000000000000000000000000000000000000000000090048063ad2e126911610083578063ad2e12691461014d578063afb0c02d1461016b578063bfd2385e14610187578063c3c7716a146101b7578063f482bdc9146101e7576100b0565b8063116776c4146100b557806333b594ef146100e5578063764a56df1461010157806389080b9214610131575b600080fd5b6100cf60048036038101906100ca9190610c3b565b610203565b6040516100dc9190610cf8565b60405180910390f35b6100ff60048036038101906100fa9190610d50565b6102d7565b005b61011b60048036038101906101169190610c3b565b6104fd565b6040516101289190610cf8565b60405180910390f35b61014b60048036038101906101469190610d90565b6105a3565b005b610155610938565b6040516101629190610e42565b60405180910390f35b61018560048036038101906101809190610d50565b61095c565b005b6101a1600480360381019061019c9190610c3b565b610ab7565b6040516101ae9190610e6c565b60405180910390f35b6101d160048036038101906101cc9190610c3b565b610b00565b6040516101de9190610e6c565b60405180910390f35b61020160048036038101906101fc9190610fbc565b610b18565b005b6060600360008373ffffffffffffffffffffffffffffffffffffffff1673ffffffffffffffffffffffffffffffffffffffff168152602001908152602001600020600001805461025290611034565b80601f016020809104026020016040519081016040528092919081815260200182805461027e90611034565b80156102cb5780601f106102a0576101008083540402835291602001916102cb565b820191906000526020600020905b8154815290600101906020018083116102ae57829003601f168201915b50505050509050919050565b600160009054906101000a900473ffffffffffffffffffffffffffffffffffffffff1673ffffffffffffffffffffffffffffffffffffffff163373ffffffffffffffffffffffffffffffffffffffff1614610367576040517f08c379a000000000000000000000000000000000000000000000000000000000815260040161035e906110d7565b60405180910390fd5b80600260008473ffffffffffffffffffffffffffffffffffffffff1673ffffffffffffffffffffffffffffffffffffffff168152602001908152602001600020546103b29190611126565b600260008473ffffffffffffffffffffffffffffffffffffffff1673ffffffffffffffffffffffffffffffffffffffff1681526020019081526020016000205410610432576040517f08c379a0000000000000000000000000000000000000000000000000000000008152600401610429906111a6565b60405180910390fd5b80600260008473ffffffffffffffffffffffffffffffffffffffff1673ffffffffffffffffffffffffffffffffffffffff1681526020019081526020016000205461047d9190611126565b600260008473ffffffffffffffffffffffffffffffffffffffff1673ffffffffffffffffffffffffffffffffffffffff168152602001908152602001600020819055507f6e462fd50f31d10b64058dbe684d5ac6195a0bf0c61db60c206b7e691af93bcc82826040516104f19291906111d5565b60405180910390a15050565b600360205280600052604060002060009150905080600001805461052090611034565b80601f016020809104026020016040519081016040528092919081815260200182805461054c90611034565b80156105995780601f1061056e57610100808354040283529160200191610599565b820191906000526020600020905b81548152906001019060200180831161057c57829003601f168201915b5050505050905081565b81600260008573ffffffffffffffffffffffffffffffffffffffff1673ffffffffffffffffffffffffffffffffffffffff168152602001908152602001600020541015610625576040517f08c379a000000000000000000000000000000000000000000000000000000000815260040161061c9061124a565b60405180910390fd5b8060008054906101000a900473ffffffffffffffffffffffffffffffffffffffff1673ffffffffffffffffffffffffffffffffffffffff166370a08231336040518263ffffffff167c010000000000000000000000000000000000000000000000000000000002815260040161069b919061126a565b602060405180830381865afa1580156106b8573d6000803e3d6000fd5b505050506040513d601f19601f820116820180604052508101906106dc919061129a565b101561071d576040517f08c379a000000000000000000000000000000000000000000000000000000000815260040161071490611313565b60405180910390fd5b81600260003373ffffffffffffffffffffffffffffffffffffffff1673ffffffffffffffffffffffffffffffffffffffff168152602001908152602001600020546107689190611126565b600260003373ffffffffffffffffffffffffffffffffffffffff1673ffffffffffffffffffffffffffffffffffffffff1681526020019081526020016000208190555081600260008573ffffffffffffffffffffffffffffffffffffffff1673ffffffffffffffffffffffffffffffffffffffff168152602001908152602001600020546107f69190611333565b600260008573ffffffffffffffffffffffffffffffffffffffff1673ffffffffffffffffffffffffffffffffffffffff1681526020019081526020016000208190555060008054906101000a900473ffffffffffffffffffffffffffffffffffffffff1673ffffffffffffffffffffffffffffffffffffffff166323b872dd3385846040518463ffffffff167c01000000000000000000000000000000000000000000000000000000000281526004016108b293929190611367565b6020604051808303816000875af11580156108d1573d6000803e3d6000fd5b505050506040513d601f19601f820116820180604052508101906108f591906113d6565b507f243222deee0acbb4e3d21131e70fb64a611eb50402204933f9b72aceadde724d3384848460405161092b9493929190611403565b60405180910390a1505050565b60008054906101000a900473ffffffffffffffffffffffffffffffffffffffff1681565b600160009054906101000a900473ffffffffffffffffffffffffffffffffffffffff1673ffffffffffffffffffffffffffffffffffffffff163373ffffffffffffffffffffffffffffffffffffffff16146109ec576040517f08c379a00000000000000000000000000000000000000000000000000000000081526004016109e3906114ba565b60405180910390fd5b80600260008473ffffffffffffffffffffffffffffffffffffffff1673ffffffffffffffffffffffffffffffffffffffff16815260200190815260200160002054610a379190611333565b600260008473ffffffffffffffffffffffffffffffffffffffff1673ffffffffffffffffffffffffffffffffffffffff168152602001908152602001600020819055507fdf7b9aff532fbfca4066fd8cee109f0e04af56760538621c65e41b254cbd245e8282604051610aab9291906111d5565b60405180910390a15050565b6000600260008373ffffffffffffffffffffffffffffffffffffffff1673ffffffffffffffffffffffffffffffffffffffff168152602001908152602001600020549050919050565b60026020528060005260406000206000915090505481565b604051806020016040528082815250600360003373ffffffffffffffffffffffffffffffffffffffff1673ffffffffffffffffffffffffffffffffffffffff1681526020019081526020016000206000820151816000019081610b7b9190611682565b509050507ffb484233b8b1462403137f3ee1d35494663faaefa9b80f36ba86b0a77c27ec4e33604051806020016040528084815250604051610bbe9291906117c8565b60405180910390a150565b6000604051905090565b600080fd5b600080fd5b600073ffffffffffffffffffffffffffffffffffffffff82169050919050565b6000610c0882610bdd565b9050919050565b610c1881610bfd565b8114610c2357600080fd5b50565b600081359050610c3581610c0f565b92915050565b600060208284031215610c5157610c50610bd3565b5b6000610c5f84828501610c26565b91505092915050565b600081519050919050565b600082825260208201905092915050565b60005b83811015610ca2578082015181840152602081019050610c87565b60008484015250505050565b6000601f19601f8301169050919050565b6000610cca82610c68565b610cd48185610c73565b9350610ce4818560208601610c84565b610ced81610cae565b840191505092915050565b60006020820190508181036000830152610d128184610cbf565b905092915050565b6000819050919050565b610d2d81610d1a565b8114610d3857600080fd5b50565b600081359050610d4a81610d24565b92915050565b60008060408385031215610d6757610d66610bd3565b5b6000610d7585828601610c26565b9250506020610d8685828601610d3b565b9150509250929050565b600080600060608486031215610da957610da8610bd3565b5b6000610db786828701610c26565b9350506020610dc886828701610d3b565b9250506040610dd986828701610d3b565b9150509250925092565b6000819050919050565b6000610e08610e03610dfe84610bdd565b610de3565b610bdd565b9050919050565b6000610e1a82610ded565b9050919050565b6000610e2c82610e0f565b9050919050565b610e3c81610e21565b82525050565b6000602082019050610e576000830184610e33565b92915050565b610e6681610d1a565b82525050565b6000602082019050610e816000830184610e5d565b92915050565b600080fd5b600080fd5b7f4e487b7100000000000000000000000000000000000000000000000000000000600052604160045260246000fd5b610ec982610cae565b810181811067ffffffffffffffff82111715610ee857610ee7610e91565b5b80604052505050565b6000610efb610bc9565b9050610f078282610ec0565b919050565b600067ffffffffffffffff821115610f2757610f26610e91565b5b610f3082610cae565b9050602081019050919050565b82818337600083830152505050565b6000610f5f610f5a84610f0c565b610ef1565b905082815260208101848484011115610f7b57610f7a610e8c565b5b610f86848285610f3d565b509392505050565b600082601f830112610fa357610fa2610e87565b5b8135610fb3848260208601610f4c565b91505092915050565b600060208284031215610fd257610fd1610bd3565b5b600082013567ffffffffffffffff811115610ff057610fef610bd8565b5b610ffc84828501610f8e565b91505092915050565b7f4e487b7100000000000000000000000000000000000000000000000000000000600052602260045260246000fd5b6000600282049050600182168061104c57607f821691505b60208210810361105f5761105e611005565b5b50919050565b7f4f6e6c7920636172626f6e206973737565722063616e20697373756520616c6c60008201527f6f77616e63650000000000000000000000000000000000000000000000000000602082015250565b60006110c1602683610c73565b91506110cc82611065565b604082019050919050565b600060208201905081810360008301526110f0816110b4565b9050919050565b7f4e487b7100000000000000000000000000000000000000000000000000000000600052601160045260246000fd5b600061113182610d1a565b915061113c83610d1a565b9250828201905080821115611154576111536110f7565b5b92915050565b7f4f766572666c6f77210000000000000000000000000000000000000000000000600082015250565b6000611190600983610c73565b915061119b8261115a565b602082019050919050565b600060208201905081810360008301526111bf81611183565b9050919050565b6111cf81610bfd565b82525050565b60006040820190506111ea60008301856111c6565b6111f76020830184610e5d565b9392505050565b7f496e73756666696369656e7420636172626f6e20616c6c6f77616e6365000000600082015250565b6000611234601d83610c73565b915061123f826111fe565b602082019050919050565b6000602082019050818103600083015261126381611227565b9050919050565b600060208201905061127f60008301846111c6565b92915050565b60008151905061129481610d24565b92915050565b6000602082840312156112b0576112af610bd3565b5b60006112be84828501611285565b91505092915050565b7f496e737566666963656e7420636172626f6e20636f696e000000000000000000600082015250565b60006112fd601783610c73565b9150611308826112c7565b602082019050919050565b6000602082019050818103600083015261132c816112f0565b9050919050565b600061133e82610d1a565b915061134983610d1a565b9250828203905081811115611361576113606110f7565b5b92915050565b600060608201905061137c60008301866111c6565b61138960208301856111c6565b6113966040830184610e5d565b949350505050565b60008115159050919050565b6113b38161139e565b81146113be57600080fd5b50565b6000815190506113d0816113aa565b92915050565b6000602082840312156113ec576113eb610bd3565b5b60006113fa848285016113c1565b91505092915050565b600060808201905061141860008301876111c6565b61142560208301866111c6565b6114326040830185610e5d565b61143f6060830184610e5d565b95945050505050565b7f4f6e6c7920636172626f6e206973737565722063616e206275726e20616c6c6f60008201527f77616e6365000000000000000000000000000000000000000000000000000000602082015250565b60006114a4602583610c73565b91506114af82611448565b604082019050919050565b600060208201905081810360008301526114d381611497565b9050919050565b60008190508160005260206000209050919050565b60006020601f8301049050919050565b60008160020a8302905092915050565b60006008830261153f7fffffffffffffffffffffffffffffffffffffffffffffffffffffffffffffffff826114ff565b61154986836114ff565b95508019841693508086168417925050509392505050565b600061157c61157761157284610d1a565b610de3565b610d1a565b9050919050565b6000819050919050565b61159683611561565b6115aa6115a282611583565b84845461150f565b825550505050565b600090565b6115bf6115b2565b6115ca81848461158d565b505050565b5b818110156115ee576115e36000826115b7565b6001810190506115d0565b5050565b601f82111561163357611604816114da565b61160d846114ef565b8101602085101561161c578190505b611630611628856114ef565b8301826115cf565b50505b505050565b60008160020a8304905092915050565b600061165960001984600802611638565b1980831691505092915050565b60006116728383611648565b9150826002028217905092915050565b61168b82610c68565b67ffffffffffffffff8111156116a4576116a3610e91565b5b6116ae8254611034565b6116b98282856115f2565b600060209050601f8311600181146116ec57600084156116da578287015190505b6116e48582611666565b86555061174c565b601f1984166116fa866114da565b60005b82811015611722578489015182556001820191506020850194506020810190506116fd565b8683101561173f578489015161173b601f891682611648565b8355505b6001600288020188555050505b505050505050565b600082825260208201905092915050565b600061177082610c68565b61177a8185611754565b935061178a818560208601610c84565b61179381610cae565b840191505092915050565b600060208301600083015184820360008601526117bb8282611765565b9150508091505092915050565b60006040820190506117dd60008301856111c6565b81810360208301526117ef818461179e565b9050939250505056fea2646970667358221220b44193e874b86760727c70012dc522220a9a439528d8d96137d328e134517f8364736f6c63430008150033",
  "immutableReferences": {},
  "source": "// SPDX-License-Identifier: MIT\r\npragma solidity ^0.8.0;\r\n\r\nimport \"@openzeppelin/contracts/token/ERC20/IERC20.sol\";\r\nimport \"@openzeppelin/contracts/token/ERC20/ERC20.sol\";\r\nimport \"@openzeppelin/contracts/utils/Address.sol\";\r\nimport \"@openzeppelin/contracts/token/ERC20/utils/SafeERC20.sol\";\r\n\r\ncontract CarbonCredits {\r\n    using SafeERC20 for IERC20;\r\n    using Address for address;\r\n\r\n    IERC20 public carbonCoin; //  \r\n    address private carbonIssuer; // \r\n    struct CarbonReport {\r\n        string reportText; // \r\n    }\r\n\r\n    mapping(address => uint256) public carbonAllowance; // \r\n    mapping(address => CarbonReport) public carbonReports; // \r\n\r\n    event CarbonAllowanceIssued(address target, uint256 amount);\r\n    event CarbonAllowanceBurned(address target, uint256 amount);\r\n    event CarbonTransaction(address _from, address _to, uint256 _amount, uint256 _price);\r\n    event CarbonReportSubmitted(address account,CarbonReport carbonReport);\r\n\r\n    constructor(IERC20 _carbonCoin, address _carbonIssuer) {\r\n        carbonCoin = _carbonCoin;\r\n        carbonIssuer = _carbonIssuer;\r\n    }\r\n\r\n    // \r\n    function issueCarbonAllowance(address target, uint256 amount) public {\r\n        require(msg.sender == carbonIssuer, \"Only carbon issuer can issue allowance\");\r\n        require(carbonAllowance[target] < carbonAllowance[target] + amount, \"Overflow!\");\r\n        carbonAllowance[target] = carbonAllowance[target] + amount;\r\n        emit CarbonAllowanceIssued(target,amount);\r\n    }\r\n\r\n    // \r\n    function burnCarbonAllowance(address target, uint256 amount) public {\r\n        require(msg.sender == carbonIssuer, \"Only carbon issuer can burn allowance\");\r\n        carbonAllowance[target] = carbonAllowance[target] - amount;\r\n        emit CarbonAllowanceBurned(target, amount);\r\n    }\r\n\r\n    // msg.sender\r\n    function carbonTransaction(address _to, uint256 _amount, uint256 _price) public {\r\n        require(carbonAllowance[_to] >= _amount, \"Insufficient carbon allowance\"); // \r\n        require(carbonCoin.balanceOf(msg.sender) >= _price, \"Insufficent carbon coin\"); // \r\n        carbonAllowance[msg.sender] = carbonAllowance[msg.sender] + _amount; // \r\n        carbonAllowance[_to] = carbonAllowance[_to] - _amount; // \r\n        carbonCoin.transferFrom( msg.sender,_to, _price); //       \r\n        emit CarbonTransaction(msg.sender,_to,_amount,_price);\r\n    }\r\n\r\n    // \r\n    function submitCarbonReport(string memory report) public{\r\n        carbonReports[msg.sender] = CarbonReport(report);\r\n        emit CarbonReportSubmitted(msg.sender, CarbonReport(report));\r\n    }\r\n\r\n    // \r\n    function allowanceOf(address account) public view returns (uint256){\r\n        return carbonAllowance[account];\r\n    }\r\n\r\n    // \r\n    function reportOf(address account) public view returns (string memory){\r\n        return carbonReports[account].reportText;\r\n    }\r\n\r\n}\r\n",
  "sourcePath": "G:\\CNTS\\carbon-neutral-trading-system\\truffle\\contracts\\CarbonCredits.sol",
  "compiler": {
    "name": "solc",
    "version": "0.8.21+commit.d9974bed.Emscripten.clang"
  },
  "schemaVersion": "3.4.16",
  "updatedAt": "2024-04-01T03:39:31.175Z",
  "networkType": "ethereum",
  "devdoc": {
    "kind": "dev",
    "methods": {},
    "version": 1
  },
  "userdoc": {
    "kind": "user",
    "methods": {},
    "version": 1
  }
}