{
  "contractName": "CarbonCredits",
  "abi": [
    {
      "inputs": [
        {
          "internalType": "contract IERC20",
          "name": "_carbonCoin",
          "type": "address"
        },
        {
          "internalType": "address",
          "name": "_carbonIssuer",
          "type": "address"
        }
      ],
      "stateMutability": "nonpayable",
      "type": "constructor"
    },
    {
      "inputs": [
        {
          "internalType": "address",
          "name": "target",
          "type": "address"
        }
      ],
      "name": "AddressEmptyCode",
      "type": "error"
    },
    {
      "inputs": [
        {
          "internalType": "address",
          "name": "account",
          "type": "address"
        }
      ],
      "name": "AddressInsufficientBalance",
      "type": "error"
    },
    {
      "inputs": [],
      "name": "FailedInnerCall",
      "type": "error"
    },
    {
      "inputs": [
        {
          "internalType": "address",
          "name": "token",
          "type": "address"
        }
      ],
      "name": "SafeERC20FailedOperation",
      "type": "error"
    },
    {
      "anonymous": false,
      "inputs": [
        {
          "indexed": false,
          "internalType": "address",
          "name": "account",
          "type": "address"
        },
        {
          "indexed": false,
          "internalType": "address",
          "name": "target",
          "type": "address"
        },
        {
          "indexed": false,
          "internalType": "uint256",
          "name": "amount",
          "type": "uint256"
        }
      ],
      "name": "CarbonAllowanceIssued",
      "type": "event"
    },
    {
      "anonymous": false,
      "inputs": [
        {
          "indexed": false,
          "internalType": "address",
          "name": "account",
          "type": "address"
        },
        {
          "components": [
            {
              "internalType": "string",
              "name": "reportText",
              "type": "string"
            }
          ],
          "indexed": false,
          "internalType": "struct CarbonCredits.CarbonReport",
          "name": "carbonReport",
          "type": "tuple"
        }
      ],
      "name": "CarbonReportSubmitted",
      "type": "event"
    },
    {
      "anonymous": false,
      "inputs": [
        {
          "indexed": false,
          "internalType": "address",
          "name": "_from",
          "type": "address"
        },
        {
          "indexed": false,
          "internalType": "address",
          "name": "_to",
          "type": "address"
        },
        {
          "indexed": false,
          "internalType": "uint256",
          "name": "_amount",
          "type": "uint256"
        },
        {
          "indexed": false,
          "internalType": "uint256",
          "name": "_price",
          "type": "uint256"
        }
      ],
      "name": "CarbonTransaction",
      "type": "event"
    },
    {
      "inputs": [
        {
          "internalType": "address",
          "name": "",
          "type": "address"
        }
      ],
      "name": "carbonAllowance",
      "outputs": [
        {
          "internalType": "uint256",
          "name": "",
          "type": "uint256"
        }
      ],
      "stateMutability": "view",
      "type": "function"
    },
    {
      "inputs": [],
      "name": "carbonCoin",
      "outputs": [
        {
          "internalType": "contract IERC20",
          "name": "",
          "type": "address"
        }
      ],
      "stateMutability": "view",
      "type": "function"
    },
    {
      "inputs": [],
      "name": "carbonIssuer",
      "outputs": [
        {
          "internalType": "address",
          "name": "",
          "type": "address"
        }
      ],
      "stateMutability": "view",
      "type": "function"
    },
    {
      "inputs": [
        {
          "internalType": "address",
          "name": "",
          "type": "address"
        }
      ],
      "name": "carbonReports",
      "outputs": [
        {
          "internalType": "string",
          "name": "reportText",
          "type": "string"
        }
      ],
      "stateMutability": "view",
      "type": "function"
    },
    {
      "inputs": [
        {
          "internalType": "address",
          "name": "account",
          "type": "address"
        },
        {
          "internalType": "address",
          "name": "target",
          "type": "address"
        },
        {
          "internalType": "uint256",
          "name": "amount",
          "type": "uint256"
        }
      ],
      "name": "issueCarbonAllowance",
      "outputs": [],
      "stateMutability": "nonpayable",
      "type": "function"
    },
    {
      "inputs": [
        {
          "internalType": "address",
          "name": "_to",
          "type": "address"
        },
        {
          "internalType": "uint256",
          "name": "_amount",
          "type": "uint256"
        },
        {
          "internalType": "uint256",
          "name": "_price",
          "type": "uint256"
        }
      ],
      "name": "carbonTransaction",
      "outputs": [],
      "stateMutability": "nonpayable",
      "type": "function"
    },
    {
      "inputs": [
        {
          "internalType": "string",
          "name": "report",
          "type": "string"
        }
      ],
      "name": "submitCarbonReport",
      "outputs": [],
      "stateMutability": "nonpayable",
      "type": "function"
    },
    {
      "inputs": [
        {
          "internalType": "address",
          "name": "account",
          "type": "address"
        }
      ],
      "name": "allowanceOf",
      "outputs": [
        {
          "internalType": "uint256",
          "name": "",
          "type": "uint256"
        }
      ],
      "stateMutability": "view",
      "type": "function"
    },
    {
      "inputs": [
        {
          "internalType": "address",
          "name": "account",
          "type": "address"
        }
      ],
      "name": "reportOf",
      "outputs": [
        {
          "internalType": "string",
          "name": "",
          "type": "string"
        }
      ],
      "stateMutability": "view",
      "type": "function"
    }
  ],
  "bytecode": "0x608060405234801562000010575f80fd5b50604051620019b0380380620019b0833981810160405281019062000036919062000164565b815f806101000a81548173ffffffffffffffffffffffffffffffffffffffff021916908373ffffffffffffffffffffffffffffffffffffffff1602179055508060015f6101000a81548173ffffffffffffffffffffffffffffffffffffffff021916908373ffffffffffffffffffffffffffffffffffffffff1602179055505050620001a9565b5f80fd5b5f73ffffffffffffffffffffffffffffffffffffffff82169050919050565b5f620000ec82620000c1565b9050919050565b5f620000ff82620000e0565b9050919050565b6200011181620000f3565b81146200011c575f80fd5b50565b5f815190506200012f8162000106565b92915050565b6200014081620000e0565b81146200014b575f80fd5b50565b5f815190506200015e8162000135565b92915050565b5f80604083850312156200017d576200017c620000bd565b5b5f6200018c858286016200011f565b92505060206200019f858286016200014e565b9150509250929050565b6117f980620001b75f395ff3fe608060405234801561000f575f80fd5b5060043610610091575f3560e01c8063bfd2385e11610064578063bfd2385e1461012f578063c3c7716a1461015f578063cafdc34c1461018f578063f15a85ac146101ad578063f482bdc9146101c957610091565b8063116776c414610095578063764a56df146100c557806389080b92146100f5578063ad2e126914610111575b5f80fd5b6100af60048036038101906100aa9190610cf0565b6101e5565b6040516100bc9190610da5565b60405180910390f35b6100df60048036038101906100da9190610cf0565b6102b4565b6040516100ec9190610da5565b60405180910390f35b61010f600480360381019061010a9190610df8565b610354565b005b61011961064f565b6040516101269190610ea3565b60405180910390f35b61014960048036038101906101449190610cf0565b610672565b6040516101569190610ecb565b60405180910390f35b61017960048036038101906101749190610cf0565b6106b8565b6040516101869190610ecb565b60405180910390f35b6101976106cd565b6040516101a49190610ef3565b60405180910390f35b6101c760048036038101906101c29190610f0c565b6106f2565b005b6101e360048036038101906101de9190611088565b610912565b005b606060035f8373ffffffffffffffffffffffffffffffffffffffff1673ffffffffffffffffffffffffffffffffffffffff1681526020019081526020015f205f018054610231906110fc565b80601f016020809104026020016040519081016040528092919081815260200182805461025d906110fc565b80156102a85780601f1061027f576101008083540402835291602001916102a8565b820191905f5260205f20905b81548152906001019060200180831161028b57829003601f168201915b50505050509050919050565b6003602052805f5260405f205f91509050805f0180546102d3906110fc565b80601f01602080910402602001604051908101604052809291908181526020018280546102ff906110fc565b801561034a5780601f106103215761010080835404028352916020019161034a565b820191905f5260205f20905b81548152906001019060200180831161032d57829003601f168201915b5050505050905081565b8160025f8573ffffffffffffffffffffffffffffffffffffffff1673ffffffffffffffffffffffffffffffffffffffff1681526020019081526020015f205410156103d4576040517f08c379a00000000000000000000000000000000000000000000000000000000081526004016103cb90611176565b60405180910390fd5b805f8054906101000a900473ffffffffffffffffffffffffffffffffffffffff1673ffffffffffffffffffffffffffffffffffffffff166370a08231336040518263ffffffff1660e01b815260040161042d9190610ef3565b602060405180830381865afa158015610448573d5f803e3d5ffd5b505050506040513d601f19601f8201168201806040525081019061046c91906111a8565b10156104ad576040517f08c379a00000000000000000000000000000000000000000000000000000000081526004016104a49061121d565b60405180910390fd5b8160025f3373ffffffffffffffffffffffffffffffffffffffff1673ffffffffffffffffffffffffffffffffffffffff1681526020019081526020015f20546104f69190611268565b60025f3373ffffffffffffffffffffffffffffffffffffffff1673ffffffffffffffffffffffffffffffffffffffff1681526020019081526020015f20819055508160025f8573ffffffffffffffffffffffffffffffffffffffff1673ffffffffffffffffffffffffffffffffffffffff1681526020019081526020015f20546105809190611268565b60025f8573ffffffffffffffffffffffffffffffffffffffff1673ffffffffffffffffffffffffffffffffffffffff1681526020019081526020015f208190555061060d3384845f8054906101000a900473ffffffffffffffffffffffffffffffffffffffff1673ffffffffffffffffffffffffffffffffffffffff166109bf909392919063ffffffff16565b7f243222deee0acbb4e3d21131e70fb64a611eb50402204933f9b72aceadde724d33848484604051610642949392919061129b565b60405180910390a1505050565b5f8054906101000a900473ffffffffffffffffffffffffffffffffffffffff1681565b5f60025f8373ffffffffffffffffffffffffffffffffffffffff1673ffffffffffffffffffffffffffffffffffffffff1681526020019081526020015f20549050919050565b6002602052805f5260405f205f915090505481565b60015f9054906101000a900473ffffffffffffffffffffffffffffffffffffffff1681565b60015f9054906101000a900473ffffffffffffffffffffffffffffffffffffffff1673ffffffffffffffffffffffffffffffffffffffff163373ffffffffffffffffffffffffffffffffffffffff1614610781576040517f08c379a00000000000000000000000000000000000000000000000000000000081526004016107789061134e565b60405180910390fd5b8060025f8473ffffffffffffffffffffffffffffffffffffffff1673ffffffffffffffffffffffffffffffffffffffff1681526020019081526020015f20546107ca9190611268565b60025f8473ffffffffffffffffffffffffffffffffffffffff1673ffffffffffffffffffffffffffffffffffffffff1681526020019081526020015f205410610848576040517f08c379a000000000000000000000000000000000000000000000000000000000815260040161083f906113b6565b60405180910390fd5b8060025f8473ffffffffffffffffffffffffffffffffffffffff1673ffffffffffffffffffffffffffffffffffffffff1681526020019081526020015f20546108919190611268565b60025f8473ffffffffffffffffffffffffffffffffffffffff1673ffffffffffffffffffffffffffffffffffffffff1681526020019081526020015f20819055507fdf5ca8f59f0f474cfbc42a1f8788d51379d11b245dd78d983f41cffe81c5f45e838383604051610905939291906113d4565b60405180910390a1505050565b60405180602001604052808281525060035f3373ffffffffffffffffffffffffffffffffffffffff1673ffffffffffffffffffffffffffffffffffffffff1681526020019081526020015f205f820151815f019081610971919061159d565b509050507ffb484233b8b1462403137f3ee1d35494663faaefa9b80f36ba86b0a77c27ec4e336040518060200160405280848152506040516109b49291906116db565b60405180910390a150565b610a3b848573ffffffffffffffffffffffffffffffffffffffff166323b872dd8686866040516024016109f4939291906113d4565b604051602081830303815290604052915060e01b6020820180517bffffffffffffffffffffffffffffffffffffffffffffffffffffffff8381831617835250505050610a41565b50505050565b5f610a6b828473ffffffffffffffffffffffffffffffffffffffff16610ad690919063ffffffff16565b90505f815114158015610a8f575080806020019051810190610a8d919061173e565b155b15610ad157826040517f5274afe7000000000000000000000000000000000000000000000000000000008152600401610ac89190610ef3565b60405180910390fd5b505050565b6060610ae383835f610aeb565b905092915050565b606081471015610b3257306040517fcd786059000000000000000000000000000000000000000000000000000000008152600401610b299190610ef3565b60405180910390fd5b5f808573ffffffffffffffffffffffffffffffffffffffff168486604051610b5a91906117ad565b5f6040518083038185875af1925050503d805f8114610b94576040519150601f19603f3d011682016040523d82523d5f602084013e610b99565b606091505b5091509150610ba9868383610bb4565b925050509392505050565b606082610bc957610bc482610c41565b610c39565b5f8251148015610bef57505f8473ffffffffffffffffffffffffffffffffffffffff163b145b15610c3157836040517f9996b315000000000000000000000000000000000000000000000000000000008152600401610c289190610ef3565b60405180910390fd5b819050610c3a565b5b9392505050565b5f81511115610c535780518082602001fd5b6040517f1425ea4200000000000000000000000000000000000000000000000000000000815260040160405180910390fd5b5f604051905090565b5f80fd5b5f80fd5b5f73ffffffffffffffffffffffffffffffffffffffff82169050919050565b5f610cbf82610c96565b9050919050565b610ccf81610cb5565b8114610cd9575f80fd5b50565b5f81359050610cea81610cc6565b92915050565b5f60208284031215610d0557610d04610c8e565b5b5f610d1284828501610cdc565b91505092915050565b5f81519050919050565b5f82825260208201905092915050565b5f5b83811015610d52578082015181840152602081019050610d37565b5f8484015250505050565b5f601f19601f8301169050919050565b5f610d7782610d1b565b610d818185610d25565b9350610d91818560208601610d35565b610d9a81610d5d565b840191505092915050565b5f6020820190508181035f830152610dbd8184610d6d565b905092915050565b5f819050919050565b610dd781610dc5565b8114610de1575f80fd5b50565b5f81359050610df281610dce565b92915050565b5f805f60608486031215610e0f57610e0e610c8e565b5b5f610e1c86828701610cdc565b9350506020610e2d86828701610de4565b9250506040610e3e86828701610de4565b9150509250925092565b5f819050919050565b5f610e6b610e66610e6184610c96565b610e48565b610c96565b9050919050565b5f610e7c82610e51565b9050919050565b5f610e8d82610e72565b9050919050565b610e9d81610e83565b82525050565b5f602082019050610eb65f830184610e94565b92915050565b610ec581610dc5565b82525050565b5f602082019050610ede5f830184610ebc565b92915050565b610eed81610cb5565b82525050565b5f602082019050610f065f830184610ee4565b92915050565b5f805f60608486031215610f2357610f22610c8e565b5b5f610f3086828701610cdc565b9350506020610f4186828701610cdc565b9250506040610f5286828701610de4565b9150509250925092565b5f80fd5b5f80fd5b7f4e487b71000000000000000000000000000000000000000000000000000000005f52604160045260245ffd5b610f9a82610d5d565b810181811067ffffffffffffffff82111715610fb957610fb8610f64565b5b80604052505050565b5f610fcb610c85565b9050610fd78282610f91565b919050565b5f67ffffffffffffffff821115610ff657610ff5610f64565b5b610fff82610d5d565b9050602081019050919050565b828183375f83830152505050565b5f61102c61102784610fdc565b610fc2565b90508281526020810184848401111561104857611047610f60565b5b61105384828561100c565b509392505050565b5f82601f83011261106f5761106e610f5c565b5b813561107f84826020860161101a565b91505092915050565b5f6020828403121561109d5761109c610c8e565b5b5f82013567ffffffffffffffff8111156110ba576110b9610c92565b5b6110c68482850161105b565b91505092915050565b7f4e487b71000000000000000000000000000000000000000000000000000000005f52602260045260245ffd5b5f600282049050600182168061111357607f821691505b602082108103611126576111256110cf565b5b50919050565b7f496e73756666696369656e7420636172626f6e20616c6c6f77616e63650000005f82015250565b5f611160601d83610d25565b915061116b8261112c565b602082019050919050565b5f6020820190508181035f83015261118d81611154565b9050919050565b5f815190506111a281610dce565b92915050565b5f602082840312156111bd576111bc610c8e565b5b5f6111ca84828501611194565b91505092915050565b7f496e737566666963656e7420636172626f6e20636f696e0000000000000000005f82015250565b5f611207601783610d25565b9150611212826111d3565b602082019050919050565b5f6020820190508181035f830152611234816111fb565b9050919050565b7f4e487b71000000000000000000000000000000000000000000000000000000005f52601160045260245ffd5b5f61127282610dc5565b915061127d83610dc5565b92508282019050808211156112955761129461123b565b5b92915050565b5f6080820190506112ae5f830187610ee4565b6112bb6020830186610ee4565b6112c86040830185610ebc565b6112d56060830184610ebc565b95945050505050565b7f4f6e6c7920636172626f6e206973737565722063616e20697373756520616c6c5f8201527f6f77616e63650000000000000000000000000000000000000000000000000000602082015250565b5f611338602683610d25565b9150611343826112de565b604082019050919050565b5f6020820190508181035f8301526113658161132c565b9050919050565b7f4f766572666c6f772100000000000000000000000000000000000000000000005f82015250565b5f6113a0600983610d25565b91506113ab8261136c565b602082019050919050565b5f6020820190508181035f8301526113cd81611394565b9050919050565b5f6060820190506113e75f830186610ee4565b6113f46020830185610ee4565b6114016040830184610ebc565b949350505050565b5f819050815f5260205f209050919050565b5f6020601f8301049050919050565b5f82821b905092915050565b5f600883026114657fffffffffffffffffffffffffffffffffffffffffffffffffffffffffffffffff8261142a565b61146f868361142a565b95508019841693508086168417925050509392505050565b5f6114a161149c61149784610dc5565b610e48565b610dc5565b9050919050565b5f819050919050565b6114ba83611487565b6114ce6114c6826114a8565b848454611436565b825550505050565b5f90565b6114e26114d6565b6114ed8184846114b1565b505050565b5b81811015611510576115055f826114da565b6001810190506114f3565b5050565b601f8211156115555761152681611409565b61152f8461141b565b8101602085101561153e578190505b61155261154a8561141b565b8301826114f2565b50505b505050565b5f82821c905092915050565b5f6115755f198460080261155a565b1980831691505092915050565b5f61158d8383611566565b9150826002028217905092915050565b6115a682610d1b565b67ffffffffffffffff8111156115bf576115be610f64565b5b6115c982546110fc565b6115d4828285611514565b5f60209050601f831160018114611605575f84156115f3578287015190505b6115fd8582611582565b865550611664565b601f19841661161386611409565b5f5b8281101561163a57848901518255600182019150602085019450602081019050611615565b868310156116575784890151611653601f891682611566565b8355505b6001600288020188555050505b505050505050565b5f82825260208201905092915050565b5f61168682610d1b565b611690818561166c565b93506116a0818560208601610d35565b6116a981610d5d565b840191505092915050565b5f602083015f8301518482035f8601526116ce828261167c565b9150508091505092915050565b5f6040820190506116ee5f830185610ee4565b818103602083015261170081846116b4565b90509392505050565b5f8115159050919050565b61171d81611709565b8114611727575f80fd5b50565b5f8151905061173881611714565b92915050565b5f6020828403121561175357611752610c8e565b5b5f6117608482850161172a565b91505092915050565b5f81519050919050565b5f81905092915050565b5f61178782611769565b6117918185611773565b93506117a1818560208601610d35565b80840191505092915050565b5f6117b8828461177d565b91508190509291505056fea264697066735822122029f54ff4f843c5b14d5b0afb21011dc54007126cc6d8c95ddc7e448b045e778a64736f6c63430008150033",
  "immutableReferences": {},
  "source": "// SPDX-License-Identifier: MIT\r\npragma solidity ^0.8.0;\r\n\r\nimport \"@openzeppelin/contracts/token/ERC20/IERC20.sol\";\r\nimport \"@openzeppelin/contracts/token/ERC20/ERC20.sol\";\r\nimport \"@openzeppelin/contracts/utils/Address.sol\";\r\nimport \"@openzeppelin/contracts/token/ERC20/utils/SafeERC20.sol\";\r\n\r\ncontract CarbonCredits {\r\n    using SafeERC20 for IERC20;\r\n    using Address for address;\r\n\r\n    IERC20 public carbonCoin; //  --IERC20SafeERC20\r\n    address public carbonIssuer; // \r\n    struct CarbonReport {\r\n        string reportText; // \r\n    }\r\n\r\n    mapping(address => uint256) public carbonAllowance; // \r\n    mapping(address => CarbonReport) public carbonReports; // \r\n\r\n    event CarbonAllowanceIssued(address account,address target, uint256 amount);\r\n    event CarbonTransaction(address _from, address _to, uint256 _amount, uint256 _price);\r\n    event CarbonReportSubmitted(address account,CarbonReport carbonReport);\r\n\r\n    constructor(IERC20 _carbonCoin, address _carbonIssuer) {\r\n        carbonCoin = _carbonCoin;\r\n        carbonIssuer = _carbonIssuer;\r\n    }\r\n\r\n    // \r\n    function issueCarbonAllowance(address account,address target, uint256 amount) public {\r\n        require(msg.sender == carbonIssuer, \"Only carbon issuer can issue allowance\");\r\n        require(carbonAllowance[target] < carbonAllowance[target] + amount, \"Overflow!\");\r\n        carbonAllowance[target] = carbonAllowance[target] + amount;\r\n        emit CarbonAllowanceIssued(account,target,amount);\r\n    }\r\n\r\n    // msg.sender\r\n    function carbonTransaction(address _to, uint256 _amount, uint256 _price) public {\r\n        require(carbonAllowance[_to] >= _amount, \"Insufficient carbon allowance\"); // \r\n        require(carbonCoin.balanceOf(msg.sender) >= _price, \"Insufficent carbon coin\"); // \r\n        carbonAllowance[msg.sender] = carbonAllowance[msg.sender] + _amount; // \r\n        carbonAllowance[_to] = carbonAllowance[_to] + _amount; // \r\n        carbonCoin.safeTransferFrom(msg.sender, _to, _amount); //       \r\n        emit CarbonTransaction(msg.sender,_to,_amount,_price);\r\n    }\r\n\r\n    // \r\n    function submitCarbonReport(string memory report) public{\r\n        carbonReports[msg.sender] = CarbonReport(report);\r\n        emit CarbonReportSubmitted(msg.sender, CarbonReport(report));\r\n    }\r\n\r\n    // \r\n    function allowanceOf(address account) public view returns (uint256){\r\n        return carbonAllowance[account];\r\n    }\r\n\r\n    // \r\n    function reportOf(address account) public view returns (string memory){\r\n        return carbonReports[account].reportText;\r\n    }\r\n\r\n}\r\n",
  "sourcePath": "G:\\CNTS\\carbon-neutral-trading-system\\truffle\\contracts\\CarbonCredits.sol",
  "compiler": {
    "name": "solc",
    "version": "0.8.21+commit.d9974bed.Emscripten.clang"
  },
  "schemaVersion": "3.4.16",
  "updatedAt": "2024-03-01T04:50:57.782Z",
  "devdoc": {
    "errors": {
      "AddressEmptyCode(address)": [
        {
          "details": "There's no code at `target` (it is not a contract)."
        }
      ],
      "AddressInsufficientBalance(address)": [
        {
          "details": "The ETH balance of the account is not enough to perform the operation."
        }
      ],
      "FailedInnerCall()": [
        {
          "details": "A call to an address target failed. The target may have reverted."
        }
      ],
      "SafeERC20FailedOperation(address)": [
        {
          "details": "An operation with an ERC20 token failed."
        }
      ]
    },
    "kind": "dev",
    "methods": {},
    "version": 1
  },
  "userdoc": {
    "kind": "user",
    "methods": {},
    "version": 1
  }
}